:100000006CC2000086C2000084C200000C94681319
:1000100080C200007EC200007CC200007AC20000E4
:1000200078C2000076C200000C94232772C2000040
:1000300070C200006EC200006CC200006AC2000004
:1000400068C200000C94051364C2000062C2000084
:1000500060C2000079C500005CC200005AC2000006
:1000600058C2000056C2000054C2000052C2000034
:1000700050C200004EC200004CC200004AC2000044
:1000800048C2000046C2000044C2000042C2000054
:1000900040C200003EC200003CC200003AC2000064
:1000A00038C2000036C2000034C200003424662486
:1000B000512566245125B124D8245125F4241C252A
:1000C000416A1842380962A62A4327046561094635
:1000D0006F0B47720B68CF0C69651C4B1B0C4C9166
:1000E000066C27094DB00B6DE4234ED21B52A408B9
:1000F00054841F740406559C0C75AF1556A10957FE
:10010000E60858570E78EE035AE21A0000002A0358
:10011000430055004C0034003300330000002A0334
:10012000430055004C00380036003800000016032C
:100130005300480041000000040309040902430081
:1001400002010080320904000001020201000524BE
:100150000001100524010301042402060524060001
:1001600001070582030800FF09040100020A0000DC
:10017000000705040240000007058302400000124A
:1001800001100102000008EB034B200000010200F7
:1001900001202F2000203D2000072E050DD391FFC8
:1001A000080500000C002165B02D3B1322F8620702
:1001B0003F181D1CC700B0876BF8B611EA2A001F54
:1001C00041000D2E2D07D3913D0432000006002181
:1001D00065B055E43023B900070018146C0700908F
:1001E000876BF85611E92A001F410000030F1E26F5
:1001F00027000000030F1E2536386700030F256710
:1002000040605000030F275188838100030F27505F
:10021000C8C3C20027000000000000006700000003
:1002200000000000500000000000000081000000FD
:1002300000000000C2000000000000504C4C310DD6
:100240000A00504C4C300D0A005620312E36372013
:1002500043554C383638005620312E36372043551A
:100260004C3433330043554C5F563300202F20006D
:10027000203D20004C4F56460D0A00424F56460D79
:100280000A004552523A4343410D0A000B08105BE5
:1002900011F81547191D1A1C1BC71C001DB221B6E9
:1002A00023EA0007022E030D04E905CA070C0B061A
:1002B0000D210E650FB010C81193120315341733BA
:1002C000181819161B4321562500261129592C816F
:1002D0002D353EC34C454E4552520D0A004C4F56EB
:1002E000460D0A004C454E4552520D0A00000702C9
:1002F0004604C605260B0610C811931203132215D7
:1003000034173F182819161B432156250026110DB6
:10031000210E650FB0070C160720F81E871F6B29EA
:10032000592C812D353EC3FF007370656369667972
:100330002076616C6964206D6F6465206E756D62F6
:1003400065720D0A000302FF0000000000000000BB
:10035000000000000000000000030210881182FF6E
:100360000000000000000000000000000003071073
:1003700088110B0D210E6B0FD01553FF00000000EC
:10038000000B060D210E650FB01700181819161B6B
:10039000431C68250026110001024605D4042D03E4
:1003A00002070008021089115C12061556FF000DA5
:1003B0002E2D07D3913D04320000060010B0715578
:1003C000E43023B900070018146C070090876BF81D
:1003D0005611E92A001F41004E2F4100454F420DA2
:1003E0000A004E2F41004E2F410000535300547D10
:1003F0007DFFFF4B4B7E7E0020697320756E6B6E18
:100400006F776E2920557365206F6E65206F6600CB
:100410003F2028004F4646004F464600434D4F447C
:100420004500544D4F444500534D4F4445006E6FB9
:100430007420636F6D70696C656420696E0D0A00CD
:100440000454053D1700000602000B080C000D21A6
:100450000E6B0FD0105C11041206132214F80A0060
:10046000154421B622101818192E1ABF1B431C0957
:100470001DB523EA242A2500261F29592C812D3554
:100480002E0907040800090006FF3EC2FF04760596
:10049000961700000602000B080C000D210E650FD8
:1004A000B0106A114A1206132214F80A00154721E7
:1004B000B622101818192E1A6D1B041C091DB22320
:1004C000EA242A2500261F29592C812D352E0907BB
:1004D000040800090006FF3EC2FF11241FBECFEF33
:1004E000DAE0DEBFCDBF11E0A0E0B1E0EEE2FDE575
:1004F00002C005900D92AA38B107D9F728E0AAE802
:10050000B1E001C01D92AE3FB207E1F70CD00C94F0
:10051000952E76CDF89481E085BF82E085BFE0E03E
:10052000F8E3099508959FE088E10FB6F894A8953F
:10053000809360000FBE9093600090E080E80FB65B
:10054000F89480936100909361000FBE2E9A2D9ACB
:1005500004B603FE0AC083E390E0DCD5882329F0CB
:1005600060E083E390E0D1D5D5DF89EF87BD84E0FB
:1005700085BD82E084BD80936E00109280008AE089
:100580008093810084B7877F84BF6E9A0E94B223D4
:10059000C5D60E94F8260E943D1F0E94310E87E6B4
:1005A00093E290938D0380938C030E94091589E058
:1005B00080938E0176980E94D32701D20E94561014
:1005C00039D30E9401160E94FA160E946A1A0E94EC
:1005D000931B0E940C29EFCF292F3327223031059E
:1005E00059F02330310569F02130310539F582E1C8
:1005F00090E02FE731E026C083E490E02CE331E087
:1006000021C099278130910539F018F0029751F0F7
:1006100015C0E8E3F1E002C0EEE2F1E0849190E081
:100620009F0110C01E9B03C02EE131E002C02EE0EE
:1006300031E0EEE1F1E0849190E004C080E090E0F0
:1006400020E030E0FA013183208308958EBD0DB49F
:1006500007FEFDCF8EB50895EF92FF920F931F9383
:10066000CF93C82F8A3008F0C8E028E0C29F8001ED
:1006700011248BE290E00B521109FC01E00FF11FF5
:10068000E551FE4F64917C012FEFE21AF20A3DD54D
:10069000C7018333910589F7C550C53010F067E174
:1006A00001C061E184E290E030D5CF911F910F91BC
:1006B000FF90EF900895CF93DF9382E090E0FC01EC
:1006C000E054FE4F6491EC0121961FD5CE01AB970B
:1006D000B1F787E390E0FC01EE59FE4F6491EC0125
:1006E000219613D5CE01C036D105A9F71E9918C0A1
:1006F00060E18FE090E009D560EB80E190E005D506
:1007000061E781E190E001D560E184E490E0FDD40F
:1007100060EB85E490E0F9D461E786E490E0F5D4FD
:1007200089E09ADFDF91CF9108952898806C8EDF61
:1007300080E08CDF289A0895CF93C62F2898806494
:1007400085DF8C2F83DF289ACF91089528987EDF4C
:10075000289A0895EF92FF920F931F93CF93DF9300
:10076000EC0110923A02EA98209A289A8EE190E0E1
:1007700036D328988EE190E032D3289A8DE290E02B
:100780002ED380E3E3DF84E690E029D3289880E449
:100790005DDF8E01075D1F4F7E018FEFE81AF80ABB
:1007A000CE01B8D453DFE701E016F106A9F7289A85
:1007B00028988EE74BDF8BE290E0EC012196AAD4DB
:1007C00045DFCE01E397C9F7289A83E3BFDF81E0D5
:1007D0000BD3CDB7DEB7E6E00C94652EA1E0B0E018
:1007E000E4EFF3E00C944D2E22E0298341E0BE01BA
:1007F0006F5F7F4F01962CD489812EDF82E090E0DD
:10080000A9DF2196E2E00C94692ECF93EA9886E363
:100810009DDFCFEF85E39ADFC1508077803229F0EA
:100820008AE090E0DCD2C111F5CFCF910895CF934B
:10083000CFEF84E38BDFC1508077803129F08AE0ED
:1008400090E0CDD2C111F5CFEA9ACF910895A2E000
:10085000B0E0EDE2F4E00C944B2E8C01FC018181C0
:100860008737E9F441E0BE016F5F7F4FC801029610
:10087000EFD3892BA1F041E0BE016E5F7F4FC8012D
:100880000496E6D3892B59F06A81898155DF83E389
:100890005DDFCDDF8981D8D38A81D6D32CC041E0FA
:1008A000BE016E5F7F4FC8010196D2D3892B21F123
:1008B0008A81893969F410E0812F37DFC5D3812F10
:1008C0008770873009F449D31F5F1033A9F714C02C
:1008D0002CDF182F83E4F5D28A81B6D385E991E025
:1008E0002FD3812FB1D381E991E02AD340E262E096
:1008F000812F90E036D331D32296E4E00C94672E1A
:1009000086E324DF10928E031092380210923A028E
:10091000089582E090E01EDF81E080938E031092C4
:10092000380210923A0208950F931F93CF93DF93EA
:10093000D82FC0E0062F10E085E3F7DE8D1731F0E9
:10094000C8014DD2C150C1F781E001C080E0DF9104
:10095000CF911F910F91089585E2E7DE8F3311F05B
:1009600080E0089586E3F2DE80918A01811104C05F
:1009700082E492E0E5D202C08DE3E8DE83E3E6DEC6
:1009800064E081E0D1DF85E2D0DE8F3349F78091EA
:100990008A01811103C08BE392E0D2D281E00895F5
:1009A00085E3C3DE8D3051F485E2BFDE8F3331F451
:1009B000D3DF84E3CBDE80778031D9F7089580914F
:1009C0007205843009F069C08093E90080918B0141
:1009D00081112AC08091E80085FF26C08091F20035
:1009E0009091F300892B31F06091F1008BEE94E04F
:1009F000BDD4F4CF8091E800982F9B7F9093E800BE
:100A00008F778093E80081E080938B018FED94E0F5
:100A100090938B0380938A03E0918C03F0918D0374
:100A200081E0099510928B0183E08093E900809129
:100A30006A04882391F18091E80085FF2EC0F89424
:100A400080916A04882369F08091F2009091F3000C
:100A50008034910530F488E694E09ED48093F100D0
:100A6000EFCF78942091F2003091F3008091E8006C
:100A7000982F9E7F9093E8008F778093E800203432
:100A8000310559F40E94A6258091E800982F9E7F99
:100A90009093E8008F778093E800089542E061EC3E
:100AA00082E00E94582542E361E883E00E945825D5
:100AB00042E360E884E00E94582510920001109201
:100AC00001011092020110920301089580917305B3
:100AD00090917405913229F0923261F1903299F53A
:100AE00012C0813A81F58091E800877F8093E80009
:100AF00067E070E080E091E00E94D1258091E800FD
:100B0000982F9B7F11C08132F1F48091E800877F9C
:100B10008093E80067E070E080E091E00E94762634
:100B20008091E800982F9E7F9093E8008F778093C4
:100B3000E8000895813239F48091E800877F80933E
:100B4000E8000C94822508951F920F920FB60F9221
:100B500011248F939F93AF93BF93EF93FF93809153
:100B6000900390919103A0919203B0919303019609
:100B7000A11DB11D8093900390939103A0939203C4
:100B8000B093930380918F038F5F80938F03EAE28A
:100B9000F4E080819181181619061CF40197918365
:100BA0008083369684E0E234F80799F78091440414
:100BB00090914504009729F0019790934504809304
:100BC0004404809157048F3F19F08150809357045B
:100BD000FF91EF91BF91AF919F918F910F900FBEB9
:100BE0000F901F901895FC019FB7F89440919003C7
:100BF00050919103609192037091930340835183CC
:100C0000628373839FBF0895A4E0B0E0EAE0F6E05A
:100C10000C944D2ECE010196E6DF8C8115D28B818E
:100C200013D28A8111D289810FD297D12496E2E022
:100C30000C94692E0F931F93CF9380919003909102
:100C40009103A0919203B091930320918D012817F5
:100C500009F463C08091900390919103A091920355
:100C6000B091930380938D01A8950AE214E0C0E04F
:100C7000F80180819181892B19F48C2F0E94AA217F
:100C8000CF5F0A5F1F4FC43099F780914404909161
:100C90004504892B11F40E9405228091570481118B
:100CA00002C00E94642280911D04882339F0815083
:100CB00080931D04811102C00E94951680918F03BC
:100CC0008D3758F110928F038091070181FF04C086
:100CD0009EB180E489278EB9809194039091950309
:100CE0008031FEE09F0728F401969093950380934E
:100CF000940380918C018F5F8C3319F080938C0169
:100D00000CC010928C01809129048F5F8C3318F4F1
:100D10008093290402C010922904CF911F910F9152
:100D20000895A0E0B0E0E7E9F6E00C94462E8C01CF
:100D30006EE070E00E94742E8D3009F04BC0769A00
:100D400080913A02882339F010923A0287E891E0C4
:100D5000AED7D1E001C0D0E080918E03811101C0F7
:100D6000D8DD53DDC4E068018DE0C80ED11C5B9A6C
:100D700088EE93E034D07801EFEFEE1AFE0AF70127
:100D8000B1907F015B98F1E3BF1619F080ED97E019
:100D900002C088EE93E023D05B9A81E3B81619F085
:100DA00088EE93E002C080ED97E019D0EC14FD04CA
:100DB00031F75B9883E218D0C150C9F68091970350
:100DC000882311F034DD02C086E3C0DCD1110E941B
:100DD00083187698CDB7DEB7E9E00C94622E880FC1
:100DE000991F0197F1F7089520ED37E0815020F029
:100DF000F9013197F1F7FACF0895CF93DF93EC0122
:100E00008B81843509F05AC0FE0133962881DE01BA
:100E100050964DE0421748F050E030E0C9010F977E
:100E20004817590709F04AC005C08D918B33A1F3CB
:100E30004F5FF0CFD9011E97AE0FBF1F8C91843545
:100E4000E9F59C8111968C911197981337C09D817B
:100E500012968C911297981331C09E8113968C91A3
:100E6000139798132BC09F8114968C911497981305
:100E700025C021513109E20FF31F15968C9115976A
:100E8000808316968C911697818319968C91199769
:100E900082831A968C911A9783831B968C911B9749
:100EA00084831C968C911C9785831D968C918683D8
:100EB00098819A5098839A819A509A83DF91CF9122
:100EC0000895CF93C82F80917205843079F4809172
:100ED0008E0180FF0BC080916A0487FD70DD6C2F4E
:100EE00088E694E043D2CA3009F469DD8091260493
:100EF0008823C9F080918E0183FF15C0CA3099F014
:100F0000CD3011F06C2F01C06BE38AE993E02ED253
:100F1000CD3019F48AE993E070DF83E080931D04FB
:100F200082E080932504CF910895CF93DF93EC0165
:100F30008991882311F0C5DFFBCFDF91CF91089510
:100F4000CF93DF93EC01FE018491882319F0B9DF80
:100F50002196F9CFDF91CF9108958DE0B2DF8AE03D
:100F6000B0CFA6E0B0E0E7EBF7E00C944B2E362FC5
:100F70001E8225E0EAE0F0E0215001E010E00C0FD5
:100F80001D1F020F111DBF010E94102E805DD80190
:100F90008C93CB013150009769F02111EDCF0AC03D
:100FA000222359F02150E1E0F0E0EC0FFD1FE20FA9
:100FB000F11D4083315037FFF3CF81E090E08C0F7B
:100FC0009D1F820F911DB1DF2696E4E00C94672EE1
:100FD000A5E0B0E0EEEEF7E00C944B2EFC011D8294
:100FE00094E02E2F2F709150A92FB0E02A3010F4EA
:100FF000205D01C0295C01E010E00C0F1D1FA00F57
:10100000B11F2C9384E0F695E7958A95E1F761503E
:10101000309739F7615067FD0BC0992349F0915023
:10102000E1E0F0E0EC0FFD1FE90FF11D4083F2CF8E
:1010300021E030E02C0F3D1F290F311DC90175DF64
:101040002596E4E00C94672E40E362E090E0C0CF88
:10105000DC01FB0130E020E09D919923B1F0913655
:1010600008F0905280ED890F8A3010F4982F05C057
:101070008FEB890F863028F49753922B332389F016
:1010800006C0903249F39A3339F3CF0107C09F016C
:101090002F5F3F4F9083415049F4C901861B970B46
:1010A0000895292F2295207F31E0D6CFF901D2CFA4
:1010B000FC0120E030E08AE09191992379F040ED45
:1010C000490F4A30C8F7829FA001839F500D112419
:1010D0009A0120533109290F311DEECFFB013183D5
:1010E00020830895982F92959F709A3010F4905D08
:1010F00001C0995CFB0190838F708A3010F4805D91
:1011000001C0895CFB01818308950E94872EF999B3
:10111000FECF08950C947F2E08950F931F93CF93C5
:10112000CFEFC60FCF3F61F08C010F5F1F4FF2DF93
:101130008BDFCC2311F08AE3C4DEC150C801F2CFAB
:10114000CF911F910F910895A2E0B0E0EAEAF8E094
:101150000C944A2EFC0121812D3421F466E08AEFA3
:1011600093E005C0203529F460E18AED93E0D5DFF6
:1011700028C01A82198242E0BE016F5F7F4F01963C
:1011800067DF823031F409811A8110270127102787
:1011900002C0098110E0C801BDDFF82E82E591DEB2
:1011A00040E364E0C80114DF80E792E0C9DE8F2DE0
:1011B0004BDF8CE692E0C4DE40E262E08F2D90E0EF
:1011C000D0DECBDE2296E5E00C94662EA6E0B0E001
:1011D000ECEEF8E00C94472E8C0143E0BE016F5F0B
:1011E0007F4F019635DF823070F1823019F4C9806B
:1011F000D12C05C0C980DA80DC24CD24DC247C011C
:10120000FF24FE01EE0DFF1D6081C6017EDFEE0CA6
:10121000FF1C8FEFE81AF80A0E0D1F1DF8018081E0
:10122000882389F041E0BE016F5F7F4FC80110DF66
:10123000892B49F0EFEFCE1ADE0A6981C60165DF1E
:101240000E5F1F4FEBCF2696E8E00C94632E41E033
:1012500067E071E00196FCDE8091070180FF02C02B
:10126000769A01C076986091070184E390E04DCFB3
:10127000A1E0B0E0EEE3F9E00C944D2E1982009766
:1012800031F041E0BE016F5F7F4F0196E1DE898161
:101290008F3F09F4FFCF882321F061E083E390E0E2
:1012A00034DF0E94032710926E00F89498E088E1E2
:1012B0000FB6F894A895809360000FBE90936000DD
:1012C000FFCFCF93DF93EC0161E080E090E01DDF82
:1012D00063E481E090E019DFEED960E080E690E021
:1012E00014DF60E081E690E010DF60E083E390E0EF
:1012F0000CDF62E084E390E008DF60E080E690E0ED
:1013000004DF60E081E690E000DF8981883719F032
:1013100080E090E0ADDFDF91CF91089580E090E034
:10132000F9DE813029F481E090E0F4DE833419F0B5
:1013300080E090E0C6DF84E390E0ECDE809307017C
:101340000895FC018181883419F485E692E007C094
:101350001E9903C087E592E002C089E492E0F0DDC7
:10136000FCCDFC011282108211820895FC019FB70E
:10137000F894828187FD0EC08F5F8283208181E097
:10138000820F8083DF01A20FB11D13966C9380380A
:1013900009F410829FBF0895FC012FB7F894828151
:1013A000811102C02FBF08959FEF980F9283918102
:1013B00081E0890F8183DF01A90FB11D13969C91F4
:1013C000803809F411822FBF892F0895FA01908186
:1013D000882369F0DB01A90FB11DE1E0F0E0022EE6
:1013E00001C0EE0F0A94EAF78C91E82BEC932223CC
:1013F00019F08FEF820F0BC081E0890F8C3010F451
:10140000FA018083FB01E80FF11D108287E090E074
:101410000895CF93C82F5B9A882319F0809191018A
:1014200002C08091930120E1829FC0011124D7DC8A
:101430005B98CC2319F08091900102C080919201B9
:1014400020E1829FC0011124CADCCF910895AAE057
:10145000B0E0EDE2FAE00C943D2E4C01B62E422EA7
:10146000DE2CE42EF12C97012E5F3F4F8C2D8A0D40
:10147000029F800D1124082E000C990B20919403DB
:10148000309195032817390720F484E792E058DD5E
:101490009DC0281B390B3093950320939403769AB3
:1014A00080913A02882341F010923A0287E891E055
:1014B000FED321E0298301C0198280918E0381111E
:1014C00001C027DAA2D9E0E1CE9EC00111249B839E
:1014D0008A8380E1A89E900111243D832C83EB2D0B
:1014E000F0E0FF83EE8366246394712C512CC110CD
:1014F00002C0AA2041F05B9A8A819B8170DC5B98D4
:101500008C819D816CDC18862885822F220F990B97
:10151000EE81FF818E179F0734F480E07ADFF88533
:10152000FF5FF887F1CFBB2011F081E072DF10E0A0
:10153000812F012E000C990B9A8789878E159F05A4
:10154000D4F487E0282E312C29853A85280D391DC1
:101550003A872987C301022C01C0880F0A94EAF751
:10156000E985FA859081892354DFF1E02F1A31084B
:1015700088F71F5FDDCF17E0880D991D9A8789874F
:10158000812F012E000C990B481659066CF4C301EB
:10159000012E01C0880F0A94EAF7E985FA85908147
:1015A000892337DF1150ECCF8D2D1EDC015009F05F
:1015B0009ECF80919703882311F039D902C086E32A
:1015C000C5D8F981F1110E94831876982A96E2E134
:1015D0000C94592EADE0B0E0E0EFFAE00C94422E0E
:1015E0007C01D62E842F022F5701A60EB11C462F48
:1015F000B70172D3F501808311E01D0D1D8619829C
:1016000027E0712CCC24C394D12C97E0A92EB12CC7
:101610004701870C911C711658F5C6010A2C01C0B0
:10162000880F0A94EAF7F4019081AE01435F5F4F9F
:10163000BE016F5F7F4F8923C9DE282FF1E0AF1A0B
:10164000B10848F7F4018081082E82958025082E84
:101650008695869580258F5F86958170AE01435F64
:101660005F4FBE016F5F7F4FB1DE282F7394CDCFE8
:10167000222311F0215004C08D858F5F8D8727E0D4
:1016800089E1809392018093930185E28093900198
:1016900080939101A12CC12C8AE0E82E4D856CE04D
:1016A000CE010196D4DE2D96EDE00C945E2EACE0DA
:1016B000B0E0EDE5FBE00C944B2E162F042F4BE031
:1016C000BE016F5F7F4F0196C3DC202F412F682F33
:1016D000CE0101967FDF2C96E4E00C94672E43E068
:1016E00066E0E5CFAF92CF92EF920F93CF93DF9367
:1016F000CDB7DEB760970FB6F894DEBF0FBECDBF93
:1017000040E1BE016F5F7F4F0196A2DC69814A8193
:101710000B818C81809393018D81809392018E81C6
:10172000809391018F8180939001E02EE2948FE06D
:10173000E8220F70242F2F7042954F70A12CC12CDE
:10174000CE01089684DE60960FB6F894DEBF0FBE19
:10175000CDBFDF91CF910F91EF90CF90AF900895D3
:10176000A9E1B0E0E6EBFBE00C94432E4BE08E01E8
:101770000F5F1F4FB80101966BDCF82E89E0F8125D
:1017800056C089E1809392018093930180939101E7
:1017900082E38093900169E0C801A8D2F801EF0DBF
:1017A000F11D8083198E1D86680127E088248394AB
:1017B000912CE12CF12CBC2CB01AF9E0FB1528F18E
:1017C000C4010E2C01C0880F0A94EAF7F60190813B
:1017D000AE01475E5F4FBE01635F7F4F8923F6DD39
:1017E000282FFFEFEF1AFF0A88E0E816F10429F727
:1017F000AE01475E5F4FBE01635F7F4F81E0E6DD74
:10180000282FEFEFCE1ADE0AD4CF222311F0215079
:1018100004C0898D8F5F898F27E0A12CC12C8AE0BD
:10182000E82E03E0498D6CE0CE010D9610DE69963E
:10183000ECE00C945F2EA9E1B0E0E1E2FCE00C9456
:10184000442E4BE09E012F5F3F4F7901B901019675
:10185000FFDB182F85E38093930196E1909392012B
:101860009093910180939001612FC7014BD2F701B2
:10187000E10FF11D808399249394910E198E1D869A
:10188000670127E0AA24A394B12C8C2D8E19891509
:1018900008F044C000E010E0C501002E01C0880F30
:1018A0000A94EAF7F6019081AE01475E5F4FBE01F0
:1018B000635F7F4F89238ADD282F0F5F1F4F04301E
:1018C000110551F7AE01475E5F4FBE01635F7F4F69
:1018D00081E07CDD282FC501002E01C0880F0A940D
:1018E000EAF7F6019081AE01475E5F4FBE01635F8C
:1018F0007F4F89236BDD282F0F5F1F4F08301105A5
:1019000051F7AE01475E5F4FBE01635F7F4F81E0DD
:101910005DDD282FFFEFCF1ADF0AB7CFA12CC12C36
:101920008AE0E82E03E0498D6AE0CE010D968FDD56
:101930006996EBE00C94602EAF92CF92EF920F93EA
:10194000CF93DF9300D000D0CDB7DEB743E0BE0128
:101950006F5F7F4F01967CDB8AE68093930194E270
:101960009093920191E2909391018093900180E88D
:101970008C83A12CC12C8FE0E82E03E026E043E00D
:1019800060E0CE01019663DD0F900F900F900F90F5
:10199000DF91CF910F91EF90CF90AF900895AF92DC
:1019A000CF92EF920F93CF93DF93CDB7DEB72C9703
:1019B0000FB6F894DEBF0FBECDBF4BE0BE016F5F28
:1019C0007F4F029645DB8530C1F48EE3809393010F
:1019D0008CE18093920181E2809391018AE380936C
:1019E000900185E2A82E9AEFC92EE12C05E024E0B3
:1019F00044E068E0CE0101962ADD2C960FB6F894FB
:101A0000DEBF0FBECDBFDF91CF910F91EF90CF9092
:101A1000AF900895A0E0B0E0E0E1FDE00C94432E2B
:101A2000DC011092AF011092C4011196DC90119765
:101A3000DD0CDD0CDD0C13968C911397D81A8D2DCF
:101A400097E0B92EBD0C1092B00128E0D22ED80E2E
:101A500071E090E040E087E057E0C12C37E0E32EF2
:101A6000F12C01E010E07D1509F47DC0FD01EC0DC5
:101A7000F11D248130E0052E02C0359527950A948A
:101A8000E2F721703327552311F0515002C0C3945F
:101A900057E06B3479F4833009F049C0411108C034
:101AA000232B09F05DC01092AF019093C40170C068
:101AB00040E03FC08F3F39F56634B1F4E92FF0E0E4
:101AC000E055FE4FE0810E2EE295E0250E2EE695C4
:101AD000E695E025EF5FE695E170CE2F812CD82DBD
:101AE0002C173D0741F004C0653429F4232B19F469
:101AF0004093AF01DACF9F5FE92FF0E0E055FE4F52
:101B0000108287E02EC0232B49F1663469F4E92F57
:101B1000F0E0E055FE4FA0809801082E01C0220F92
:101B20000A94EAF72A2919C0653429F017C08F3FB3
:101B3000E9F2232B99F0E92FF0E0E055FE4F9701F1
:101B4000281B310987FD3395480102C0880C991C78
:101B50002A95E2F794013081232B2083815001C024
:101B600041E07F5F80CF4093AF019093C401B716EF
:101B700078F4653431F48F3F21F49F5F9093C40172
:101B800002C04111FACF81E09091C401911101C0CE
:101B900080E0CDB7DEB7ECE00C945F2E10926F00C2
:101BA000E091C7018CE1E89FF0011124E853FE4F5A
:101BB0001082809196038D7F809396030895FC0197
:101BC0008181843108F0EACF662389F0DF01A80F14
:101BD000B11D21E030E0038002C0220F331F0A94C0
:101BE000E2F714969C911497292B14962C939381C9
:101BF000992319F091509383089597E093838F5F11
:101C00008183E80FF11D14820895DC01362F1196AF
:101C10002C911197E22FF0E050E09C91BF01641BE2
:101C2000750B655F7F4F67317105C8F4892F90E0B0
:101C3000632F70E09C01261B370B255F3F4F273138
:101C4000310568F49F01280F391F640F751F261B8B
:101C5000370B255F3F4F81E02731310508F080E0E9
:101C60000895539A5B985298E9E6F0E0808180618C
:101C7000808388E097E09093950380939403E8EC49
:101C8000F1E0148E10AE10921C0210928E03089593
:101C90008091880381110AC080919703882321F0E5
:101CA0000E9489040C9417040C9480040895FC018C
:101CB000218121110BC080919703C6D940E265E0D4
:101CC00080919403909195034CD947C941E067E90D
:101CD00073E00196BDD9DCCF442339F04150FB01BC
:101CE000E40FF11D9081890FF7CF08959C0180E0EA
:101CF000662339F06150F901E60FF11D90818927C3
:101D0000F7CF0895FC017091AF0140E095E020E02D
:101D1000662399F06150DF01A60FB11D3C91532F4E
:101D200052955F702527950F772311F0442319F002
:101D30003F702327930F4F5FEBCF920F30E1939FBC
:101D4000C0011124822B0895FC0182819381A0811E
:101D5000B181A80FB11D2C9130E0092E02C035953C
:101D600027950A94E2F721703FEF390F33839111E1
:101D700004C08F5F828387E08383822F0895A0E071
:101D8000B0E0E5ECFEE00C94442E8C01942EC62EBF
:101D9000D12CC0E0D0E0B12CAA24A394760121E09C
:101DA000E21AF108CC15DD05C9F0C801CDDF8823A2
:101DB00099F0992051F0C7018C1B9D0B2A2D01C071
:101DC000220F8A95EAF7822F06C08A2D0C2E01C0B9
:101DD000880F0A94EAF7B82A2196E4CF8B2DCDB765
:101DE000DEB7EBE00C94602EA4E0B0E0EAEFFEE09A
:101DF0000C94442E1B8227E02C839C012C5F3F4FC8
:101E00003A8329831092C401FC012181338187E048
:101E100090E0831B9109F8E02F9F800D911D112404
:101E2000853491050CF44FC0912C0091C40106300B
:101E300070F5E02EF12C40E068E0CE0101969FDFC6
:101E40009701A90140555E4F7A01FA018083182F4E
:101E5000012E12951025012E169516951025CE01EE
:101E6000019672DF1F5F11FBAA24A0F8B12C90E04D
:101E7000A816B90641F5CE01019666DF811123C08F
:101E8000F701808198260F5F0093C401CECF40E018
:101E900068E0CE01019673DF082F182F012E1295EE
:101EA0001025012E169516951025CE0101964CDFB2
:101EB0001F5F11FBCC24C0F8D12C90E0C816D906C6
:101EC00011F481E0901280E02496EBE00C94602EF7
:101ED000A4E0B0E0EEE6FFE00C94462EFC011B828D
:101EE00087E08C83CF0104969A8389838081853033
:101EF00009F052C02181338187E090E0831B910972
:101F000038E0239F800D911D11248039910509F03F
:101F100043C01092C4013FE0C32E30EFD32E19E826
:101F20008091C401E82EF12CBB24B394B80E41E09B
:101F300068E08F3078F4CE01019621DFC80ED11C05
:101F4000F701E055FE4F1827108314E2180FB092E6
:101F5000C401E6CFCE01019612DF8601080F111DE4
:101F6000B092C401F701E055FE4F8095808341E0B7
:101F700068E0CE01019603DF90E0982F8827081BC8
:101F8000190B41E068E0CE010196F9DE282F30E020
:101F900081E02017310709F080E02496E9E00C94F5
:101FA000622EA4E0B0E0E7EDFFE00C944A2E1B8225
:101FB00027E02C839C012C5F3F4F3A832983FC014F
:101FC00021812430A1F58381813089F51092C401EB
:101FD0008091C401082F10E0FF24F394F80E41E033
:101FE000843098F4811106C067E0CE010196C7DE07
:101FF000806804C068E0CE010196C1DEF801E055BA
:10200000FE4F8083F092C401E3CF67E0CE010196DA
:10201000B6DEF801E055FE4F880F8083F092C401D0
:102020009091B00192959F7081E09A3009F080E024
:102030002496E5E00C94662ECF93DF93FC0181811A
:102040008330C1F483818730A9F48081883091F492
:1020500090E0292F30E0D901A055BE4FEF01C20F0B
:10206000D31F8C818C939F5F933099F79093C40119
:1020700081E001C080E0DF91CF910895FC01908163
:1020800080919603993611F0933751F4982F9370FD
:10209000913011F4826006C080FF07C08B7F03C0BF
:1020A00080FD03C08460809396030895A1E0B0E0B2
:1020B000ECE5F0E10C94432E198280919401882381
:1020C000B9F18091970387FF17C084E30E949503BD
:1020D0008058803458F0803C58F490E08055910945
:1020E00023E0959587952A95E1F703C080E001C02C
:1020F0008FE08F590E9461078091970383FF16C07C
:1021000082E70E9461078091970384FF04C0809159
:1021100095010E94610786E60E94610780919703FE
:1021200084FF04C0809194010E9461071092940181
:102130008091C501882309F464C2769A0091C60192
:102140002CE1029F8001112408531E4F89818111C7
:1021500006C0C80171DF882311F083E78983898174
:10216000811142C0C801B4DE882311F083E5898360
:102170008981811139C066E4C8014CDC8823A1F152
:10218000F090C401FA94F092C4014F2D60EB71E01D
:1021900086E0A2DDEF2DF0E0E055FE4FE0808E11ED
:1021A00005C093E09F1510F486E41BC0282F30E093
:1021B0002F5F3F4F4E2D50E02417350739F4A3E031
:1021C000AF1520F496E4998380830EC04F2D60EB09
:1021D00071E08CE081DDE81206C0B3E0BF1518F4B1
:1021E00084E5898301C01982898181111FC065E45A
:1021F000C80110DC882389F08091C401815080934C
:10220000C401893051F469E080EB91E06FDD909179
:10221000B901891302C085E489838981811106C0CF
:10222000C801E2DD882311F088E489838981811166
:1022300042C0C801B6DE882311F084E78983898112
:10224000811139C0F801438D60919501C8014A960A
:10225000DCDC682FC801B3DC6BE4C801DBDB88235E
:10226000C1F0E091C401FF24FA94FE0EF092C40183
:102270006F2D80EB91E046DDEF2DF0E09091AF0106
:10228000E91BF109E055FE4F9081891302C08BE4F0
:102290008983898181110FC0D80113968C9113977E
:1022A000873021F08F5F13968C9308C0F80113825A
:1022B000818181508183898181112DC0D80111963E
:1022C0008C911197843039F513968C91843019F5DF
:1022D0004EE16CE3C801489698DC8823E1F04EE1BA
:1022E00060919501C8014A9690DC682FC80167DCAF
:1022F00080E0282F30E0F901E055FE4FD801A20F11
:10230000B31F14969C9190838F5F853091F78093D3
:10231000C40182E589836981662309F4DBC04091A9
:10232000970340FFD7C0809196038E7F8B7F809369
:102330009603942F927041FD64C05091AE0170914C
:10234000C40157133EC080E08517C0F4282F30E049
:10235000E1E0E80FD901A656BE4F20553E4FFC9153
:10236000D9012C91F21741F08093AE012091960390
:102370002D7F2093960304C08E2FE6CF8093AE016D
:1023800085131FC0C0909003D0909103E0909203FA
:10239000F09093038090960190909701A0909801FF
:1023A000B0909901C818D908EA08FB08B6E2CB1624
:1023B000D104E104F10428F48091960381608093B4
:1023C0009603971760F4292F30E0F901E656FE4F87
:1023D000D901A055BE4F8C9180839F5FF2CF90931F
:1023E000AE018091900390919103A0919203B091DE
:1023F00093038093960190939701A0939801B093D3
:1024000099016435E9F446FD1BC08091C401853013
:10241000B8F08091B2018B3471F0893661F09DEA99
:10242000980F923040F08D57823028F08091B301A0
:102430008077803729F4809196038160809396039A
:10244000B801CE0101961ADE8981843569F4909134
:102450002604992349F090912804911105C0909188
:1024600096039B7F909396039091960392FF32C0C0
:102470000E9461078091AF01882329F08091C401F7
:1024800081508093C401F12CE091C401FE1648F400
:10249000EF2DF0E0E055FE4F80810E942408F39478
:1024A000F3CF8091AF01882351F0F0E0E055FE4F6B
:1024B00080818F7040E361E090E00E94E8078091A6
:1024C000970385FF05C084E30E9495030E942408BA
:1024D0000E94AD078091970382FF7AC080E70E9437
:1024E0006107F801808140E262E090E00E94B1075C
:1024F000D80158968C9140E265E0B0E18B9FC00115
:1025000011240E94B107F801818D40E265E0F0E1FD
:102510008F9FC00111240E94B107D8015A968C9157
:1025200040E265E0B0E18B9FC00111240E94B10739
:10253000F801838D40E265E0F0E18F9FC001112436
:102540000E94B107D80112968C9140E263E090E0BE
:102550000E94B107F801818140E263E090E00E94AF
:10256000B107D80113969C9140E262E027E030E089
:10257000F901E91BF109CF010E94B10780E20E9435
:1025800061078091970385FF08C084E30E9495034B
:102590000E94240880E20E946107D80113968C9162
:1025A0001397873031F011968C9111978F5F1196A8
:1025B0008C93F12CF8018181F81640F4F801EF0DAD
:1025C000F11D84810E942408F394F4CF0E94AD078A
:1025D000D8011C928091C50181508093C5018091E2
:1025E000C6018F5F843019F08093C60102C010923B
:1025F000C60176988981843521F480EB91E00E94B0
:1026000073222196ECE00C945F2E1F920F920FB66E
:102610000F9211242F933F934F935F936F937F9368
:102620008F939F93AF93BF93EF93FF9310926F009D
:102630008091970383FF03C08EE20E94610780911F
:10264000C7019CE1899FF0011124E853FE4F90815E
:10265000933018F09181923010F4A0DA18C0909164
:10266000C501933049F48091970382FFF6CF8BE741
:1026700092E00E94A007F1CF9F5F9093C5018F5F0A
:10268000843019F08093C70102C01092C701FF91F6
:10269000EF91BF91AF919F918F917F916F915F91DA
:1026A0004F913F912F910F900FBE0F901F90189553
:1026B0009BED980F973150F496EF960F9D3130F4C3
:1026C00091E0681708F090E0892F089580E0089560
:1026D0001F920F920FB60F921124FF920F931F9328
:1026E0002F933F934F935F936F937F938F939F931A
:1026F000AF93BF93CF93DF93EF93FF9380911E042B
:10270000823021F483E080931E0459C1009184003B
:1027100010918500E4E016950795EA95E1F7C091E0
:10272000C7018CE1C89FE0011124C853DE4F8881A6
:10273000843031F40E3208F442C10F3448F0B5C091
:10274000853031F4073108F43AC1083208F0ADC0E1
:102750004A990DC08450823038F461E0CE012FDAFE
:1027600010928500109284000093950128C19091E9
:102770009501091B0093940110928500109284002A
:102780008881883071F42A8121110BC021E02A83CD
:10279000988F9A8F098F0B3B10F4000F01C006959C
:1027A0000B8F8450823020F460E0CE0108DA07C13C
:1027B00082E086BB0881011111C090919501953688
:1027C00008F0FDC080919401853608F0F8C0988F1C
:1027D000898F81E08A8382E08883F1C0109194011F
:1027E000023009F072C000919501412F602FCE0197
:1027F00048960BDA2A818823F9F0888D90E0AC01A5
:10280000440F551F840F951F800F911D9595879537
:1028100095958795888F898D90E0AC01440F551F61
:10282000840F951F810F911D959587959595879597
:10283000898F2F5F2A83C3C0243008F444C080EA04
:102840009FE090938900809388008A818C3050F0BB
:10285000288D898D90E0820F911D8536910524F099
:1028600084E026C08A3080F0288D898D90E0820F28
:10287000911D85974CF485E0888388EE93E09093D2
:1028800089008093880015C080919903882379F08E
:10289000612F802F0DDF882351F0688D898D08DF2F
:1028A000882329F081E080931E0478D988C083E0D2
:1028B00088830A8F1B8F198287E08B831C8282E0BA
:1028C00080936F007CC0188278CF083029F581E9A9
:1028D000810F8D3178F460E0CE0171D9888D90E060
:1028E0009C01220F331F820F931F20919501820FAD
:1028F000911D4EC0173E08F462C061E0CE015FD961
:102900008A8D90E09C01220F331F820F931F20912C
:102910009501820F911D15C0F0909501412F6F2DEB
:10292000CE014A9672D9882301F161E0CE0147D9E0
:102930008A8D90E09C01220F331F820F931F8F0D11
:10294000911D95958795959587958A8F8B8D90E0AC
:102950009C01220F331F820F931F810F911D9595AC
:102960008795959587958B8F2AC0412F6F2DCE0126
:1029700048964BD9882301F160E0CE0120D9888D9B
:1029800090E09C01220F331F820F931F8F0D911D2A
:102990009595879595958795888F898D90E09C0171
:1029A000220F331F820F931F810F911D95958795DD
:1029B00095958795898F03C0073009F076CFFF91F1
:1029C000EF91DF91CF91BF91AF919F918F917F91C7
:1029D0006F915F914F913F912F911F910F91FF90B8
:1029E0000F900FBE0F901F901895E091C7018CE1DA
:1029F000E89FF0011124E853FE4F8081811107C048
:102A000081E0909157049F3F19F480E0089581E0A0
:102A1000089580E690E00E948A088093990381E6F9
:102A200090E00E948A0880932604882321F081E2A6
:102A3000809397032DD910921F0408955B9A0C94EC
:102A4000EF065B980C94EF06A7E0B0E0EAE2F5E150
:102A50000C94472E30919D0390E0E92FF0E0E15E69
:102A6000FB4F2081222309F46FC0231711F09F5FD1
:102A7000F4CF95E79983882391F0BE016E5F7F4F75
:102A8000809126040E947208BE016C5F7F4F809186
:102A900099030E94720885E58E8316E001C011E05B
:102AA0000E9489040E94050406E080E891E0C6DFE8
:102AB00080E093E0C6DF0150C1F780E093E0BEDF25
:102AC00080E891E0BEDF80E891E0B8DF5B9887E3C3
:102AD00090E00E94AA0383E00E94F40628988FE702
:102AE0000E94260380919C03810F0E942603CE0141
:102AF00001966C017C01F70181917F010E94260300
:102B00008E2D8C198117B8F380919C03882339F09E
:102B10008AE993E00E94CC090E942603F5CF289A07
:102B20000E9405048AE993E00E94B10915E18AE355
:102B30000E9495038F7731F0115021F081E00E94BF
:102B4000F406F5CFA5D807C0992309F492CF8AE9F6
:102B500093E00E94B1092796E8E00C94632ECF938E
:102B6000DF93EC01898181110BC0809199030E9450
:102B70002408809126040E9424080E94AD073EC0CC
:102B8000863681F42296AFE1B4E0E0E089918823B3
:102B900021F08D93EF5FE530C9F7F0E0E15EFB4F88
:102BA00010822CC08936D9F441E069E973E0CE0186
:102BB00002960E9428086091990380E690E00E94A6
:102BC000850841E066E274E0CE0104960E94280880
:102BD0006091260481E690E00E9485080FC08AE992
:102BE00093E00E94B10921966991662329F08AE950
:102BF00093E00E94B609F8CF80E026DFDF91CF9105
:102C00000895A1E0B0E0E7E0F6E10C94472E809152
:102C10001E04882309F485C0C0909003D0909103CE
:102C2000E0909203F0909303833009F060C08FE34B
:102C30000E949503182F8630C8F08BEE94E00E9416
:102C4000B10928988FEF0E94260380E00E94260396
:102C5000082F115049F080E00E942603682F8BEE68
:102C600094E00E94B609F5CF289A01C000E010D880
:102C700010921E04053709F054C041E0BE016F5F99
:102C80007F4F8EEE94E00E942808019759F59981B4
:102C900080919903981326C08091F204853571F4D0
:102CA0008091ED04882339F08BEE94E00E94CC09EA
:102CB0000E946107F5CF0E94AD0733C08091ED04FB
:102CC00084508093ED0484E08093EC046AE08BEE02
:102CD00094E00E94B609E0918C03F0918D0388E0A6
:102CE00009951FC08BEE94E00E94B1091AC0823092
:102CF00059F4809198039C2D981B983090F00E9475
:102D0000480E10921E040DC0813059F487E390E004
:102D10000E94AA030E94170482E080931E04C092BE
:102D200098032196E8E00C94632E5FDE882319F067
:102D300083E08093250480912504815080932504AD
:102D4000882321F083E080931D04089581E07CCEE8
:102D50000F931F93CF93DF93EA98209A289A8EE1DE
:102D600090E00E94EF0628988EE190E00E94EF0626
:102D7000289A8DE290E00E94EF0680E30E94A6036D
:102D800084E690E00E94EF06C2EAD2E0FE013196AE
:102D90006491FE0184910E949C032296F2E0C43D5E
:102DA000DF07A1F780913902811107C083E30E94F8
:102DB000A60384E00E94F40610C0CCE8D2E002EA48
:102DC00012E0FE0131966491FE0184910E949C0301
:102DD00022960C171D07A9F7E9CF84E30E94A603EA
:102DE00085E30E9495038D30C1F7DF91CF911F914C
:102DF0000F910895A2E3B0E0E0E0F7E10C944B2ED0
:102E000080913802882309F4A1C04A9B8AC08FE3CD
:102E10000E9495038F778983823368F08AE30E944A
:102E2000A60386E30E94A6038DE30E94A60384E323
:102E30000E94A6038BC028988FEF0E94260310E003
:102E40008981181760F480E00E942603E2E0F0E038
:102E5000EC0FFD1FE10FF11D80831F5FF1CF80E0BC
:102E60000E942603082F80E00E942603289A84E30C
:102E70000E94A60385E30E9495038D30C1F78A81E5
:102E800096E798279A8392E02981E92FF0E092173C
:102E900068F421E030E02C0F3D1FE20FF31F20818A
:102EA0008452822780839F5F822FEECF81E090E063
:102EB0008C0F9D1FE80FF91F90818B8189278083DC
:102EC0008091970384FF12C081E60E94610710E0A1
:102ED0008981811730F1E1E0F0E0EC0FFD1FE10F97
:102EE000F11D80810E9461071F5FF2CF81E40E9483
:102EF000610710E08981811758F0E1E0F0E0EC0F04
:102F0000FD1FE10FF11D80810E9424081F5FF2CF99
:102F10008091970385FF03C0802F0E9424080E94A0
:102F2000AD0785E30E949503813029F0813161F47A
:102F30008AE30E94A60386E30E94A6038DE30E9413
:102F4000A60384E30E94A6030E94D004E296E4E074
:102F50000C94672EAAE3B0E0E0EBF7E10C94432E6B
:102F600041E38E010F5F1F4FB80101960E942808B0
:102F70007C019C01332721503109898190E0281779
:102F8000390709F0A3C080913802811104C0E0DE46
:102F900083E00E94F406DB809A8186E789278A8392
:102FA00022E03981822F90E0F801E80FF91F231702
:102FB00050F4DE01A80FB91F8C91845290818927AB
:102FC00080832F5FEECF80818D258083CE01C796D1
:102FD0000E94F30585E30E94A60385E30E94950302
:102FE000833181F1CE01C3960E94F3054BA95CA900
:102FF0006DA97EA98FA998ADA9ADBAAD8417950723
:10300000A607B70760F44A015B01881A990AAA0A61
:10301000BB0A2DEB82169104A104B10470F4481789
:1030200059076A077B0770F484549F4FAF4FBF4F17
:1030300084179507A607B70728F482E892E00E9454
:10304000A00727C085E30E949503833119F6D4FEBB
:1030500008C088E70E94F40688E70E94F40688E723
:1030600001C08AE00E94F40628988FE70E94260398
:1030700068018C2D801B8E1530F4F60181916F0153
:103080000E942603F6CF289A85E30E949503833198
:10309000D9F385E30E949503863149F48BE30E94BE
:1030A000A60386E30E94A6038DE30E94A6038091F7
:1030B0003802882349F084E30E94A60385E30E9436
:1030C00095038D30C1F702C00E94480EEA96ECE0ED
:1030D0000C945F2EFC019181923731F0923559F4B6
:1030E00081E08093390202C01092390231DE81E022
:1030F000809338020895933719F4CF0101962ACFAF
:10310000109238020895CF93DF93EA98209A289A74
:103110008EE190E00E94EF0628988EE190E00E94F8
:10312000EF06289A8DE290E00E94EF0680E30E946D
:10313000A60384E690E00E94EF06CDEED2E0FE0109
:103140008491813440F083E30E94A60384E00E94CE
:10315000F406CFEF0DC0FE0131966491FE0184911B
:103160000E949C032296F3E0C932DF0741F7EBCFC0
:1031700084E30E94A6038AE090E00E94EF06C1501B
:10318000B9F781E080933A02DF91CF9108958F9251
:103190009F92AF92BF92EF92FF920F931F93CF93A4
:1031A000DF937C01EB01FC0110811F5F209719F474
:1031B00020E030E002C024E630E0F8E01F9FC001CC
:1031C00011246AE070E00E94242E260F371F490167
:1031D000032E000CAA08BB088091940390919503DC
:1031E000AC0160E070E0481559056A057B0528F4DC
:1031F0008DED92E00E94A007D3C0821B930B9093A9
:1032000095038093940380913A02811101C07BDF82
:1032100085E30E9495038D3071F08AE50E94610775
:1032200085E40E94610782E50E94610782E50E94B1
:10323000610781E34BC080913B0290913C02A091D9
:103240003D02B0913E02892B8A2B8B2B49F50E94BF
:10325000050485E30E949503833109F442C08AE5A1
:103260000E94610785E40E94610782E50E94610770
:1032700082E50E94610782E329C04091900350914A
:10328000910360919203709193030196A11DB11D6A
:1032900084179507A607B707D1F681E00E94F406C8
:1032A0004091900350919103609192037091930328
:1032B00080913B0290913C02A0913D02B0913E0270
:1032C000481759076A077B07C1F6E7CF0E946107D5
:1032D00085E30E9495030E9424080E94AD0713DF36
:1032E0005FC0CD2B41F428988FE70E9426030E2D56
:1032F000C02FDF2D08C0CAE0D0E084E60E94F406AB
:103300002197D9F7F0CF8C2F801B811720F489915A
:103310000E942603F8CF289AC8EC85E30E94950303
:103320008D30E9F485E30E9495038D3019F18AE52B
:103330000E94610785E40E94610782E50E9461079F
:1033400082E50E94610783E30E94610785E30E9492
:1033500095030E9424080E94AD07D5DE0BC085E3CB
:103360000E9495038331F1F681E00E94F406C1507A
:10337000A1F6D8CF80913A02811102C00E94480E76
:103380008091900390919103A0919203B091930347
:1033900080933B0290933C02A0933D02B0933E0287
:1033A000DF91CF911F910F91FF90EF90BF90AF9061
:1033B0009F908F900895ACE0B0E0E1EEF9E10C94BD
:1033C0004C2EFC018BE0898381818A831B8282E001
:1033D0008C8387818D8380858E8381858F83848193
:1033E00088878581898786818A871B861C8684E1F8
:1033F0000E94F40660E070E0CE010196C8DE8AE526
:103400000E94610710E0812F90E0298130E02817A9
:1034100039075CF0E1E0F0E0EC0FFD1FE80FF91F69
:1034200080810E9424081F5FEECF8091970385FF63
:1034300003C080E00E9424080E94AD072C96E3E0C0
:103440000C94682ECF93DF93EC019091420291117E
:1034500008C080914302811104C0809144028823F6
:10346000A9F08B81803319F08F7E803479F48F81BD
:1034700098130CC0988580914302981307C09985D2
:1034800080914402981302C0CE0195DF80913F02E3
:10349000811108C090914002911104C090914102A5
:1034A0009923A9F098819B3091F49B81903479F411
:1034B0009F8189130CC0988580914002981307C0A2
:1034C000998580914102981302C0CE0174DFDF918B
:1034D000CF910895AEE1B0E0E0E7FAE10C944B2E15
:1034E00080913A02882309F469C04A9B59C08FE34E
:1034F0000E9495038F778E3108F08DE1898328989B
:103500008FEF0E94260310E08981181760F480E095
:103510000E942603E2E0F0E0EC0FFD1FE10FF11D39
:1035200080831F5FF1CF80E00E942603082F80E098
:103530000E942603289ACE01019684DF809197038A
:1035400084FF12C08AE70E94610710E08981811719
:10355000A8F1E1E0F0E0EC0FFD1FE10FF11D80812B
:103560000E9461071F5FF2CF8AE50E94610710E0A9
:103570008981811758F0E1E0F0E0EC0FFD1FE10FC9
:10358000F11D80810E9424081F5FF2CF8091970374
:1035900085FF03C0802F0E9424080E94AD070EC043
:1035A00085E30E949503813149F48AE30E94A603D2
:1035B00086E30E94A60384E30E94A6036E96E4E0DD
:1035C0000C94672EAEE1B0E0E8EEFAE10C944B2EDD
:1035D0008C01FC018181823711F495DD36C083377F
:1035E00011F0863601F54DE1BE016F5F7F4FC801D6
:1035F00002960E94280899270197298130E08217B6
:10360000930729F084ED92E00E94A0071EC061E0BC
:1036100070E0F8018181833711F060E070E0CE0145
:103620000196B5DD12C0813621F443E062E472E018
:1036300005C0873741F443E06FE372E0C8010296AA
:103640000E94280802C010923A026E96E4E00C94A0
:10365000672EA0E0B0E0EFE2FBE10C94482ED82EFC
:10366000EA98209A10924502289A8EE190E00E94F2
:10367000EF0628988EE190E00E94EF06289A8DE2EE
:1036800090E00E94EF0680E30E94A60384E690E0AB
:103690000E94EF068FEF8D0D833008F03FC0C1E828
:1036A000D3E0FE018491813460F0F4E1DF9EE0011B
:1036B000112400E010E07E0184E1E81AF10863972C
:1036C0001CC0FE0131966491FE0184910E949C030E
:1036D0002296F3E0CD3BDF0721F7E7CFFE01E00FB5
:1036E000F11FEB5BFC4F6491FC0184910E949C03F1
:1036F0000E5F1F4F0431110549F0C701800F911F64
:103700008B5B9C4FFC012491213440F383E30E94A6
:10371000A603D092450281E00E94F406CDB7DEB741
:10372000E7E00C94642ECF93DF93809145028823C9
:10373000B1F14A9B21C086E30E94A6038BE30E945D
:103740009503D82FDF7759F128988FEF0E94260331
:103750008EE40E946107809145020E942408C0E027
:1037600080E00E9426030E942408CF5FDC13F8CF7C
:10377000289A0E94AD0713C085E30E94950381300B
:1037800011F0813161F48AE30E94A60386E30E946E
:10379000A6038DE30E94A60384E30E94A603DF91A3
:1037A000CF910895A1E0B0E0E8EDFBE10C944D2E3F
:1037B0001982FC0121812237A9F42281222331F0D0
:1037C000BE016F5F7F4F02960E94580889819FEF6C
:1037D000980F933028F089E293E00E94A00713C06D
:1037E00038DF0BC0283749F480914502882319F04F
:1037F00086E30E94A60310924502809145020E9432
:1038000024080E94AD072196E2E00C94692ECF9324
:10381000DF93EA98209A289A8EE190E00E94EF06C2
:1038200028988EE190E00E94EF06289A8DE290E0C1
:103830000E94EF0680E30E94A60384E690E00E94C7
:10384000EF06289880E40E942603CFEAD3E0FE0129
:1038500084910E9426032196F3E0CC3BDF07B9F761
:10386000809108010E942603809109010E9426038D
:1038700080910A010E942603C0E0D0E0FE01E154DD
:10388000FC4F84910E9426032196C931D105B1F7DE
:10389000289A28988EE70E9426038BE290E0EC019C
:1038A00021960E948A080E942603CE01E397B9F769
:1038B000289A83E30E94A60381E00E94F40681E037
:1038C00080938E03DF91CF910895A0E0B0E0EBE606
:1038D000FCE10C94452EEC018981843769F46FE09A
:1038E00071E0CE0102960E94580840E260E08091AB
:1038F0000F019091100112C0833709F097C18A819E
:10390000823789F46BE071E0CE0103960E9458087B
:1039100040E260E080910B0190910C010E94B107A0
:103920000E94AD07F6C1769A80914802811116C0B7
:1039300080913802882329F081E080934702109219
:10394000380280913A02882329F081E08093460270
:1039500010923A025CDF83E00E94F40686E30E9444
:10396000A6038AE30E94A6038BE30E94A6030E949B
:103970000504FE0101900020E9F7EC1BFEEFFF2E8D
:10398000FE0E10E0AAE0BA2EB5E0EB2E88E2A82EDB
:1039900020910B0130910C01812F012E000C990B0D
:1039A0008217930708F005C131E2F31214C05B9A45
:1039B00080910F01909110010E94EF065B98809119
:1039C0000D0190910E01FC01BE9EC001BF9E900DA5
:1039D00011240E94EF066E01F2E0CF0ED11C01E02F
:1039E0000F150CF0BCC0F60181916F01803309F016
:1039F00048C0F1E25B9AFF1220C080910D019091C6
:103A00000E010E94EF065B9880910D0190910E01CE
:103A10000E94EF065B9A80910D0190910E010E9429
:103A2000EF065B9880910D0190910E019C01E29E42
:103A3000C001E39E900D11248EC080910F019091E2
:103A400010010E94EF065B9880910F019091100188
:103A50009C01220F331F820F931F0E94EF065B9A77
:103A600080910F01909110010E94EF065B98809168
:103A70000F01909110019C01220F331F820F931FA1
:103A80006AC0813339F531E25B9AF31212C080913A
:103A90000D0190910E010E94EF065B9880910D013F
:103AA00090910E01FC01EE9EC001EF9E900D11243D
:103AB00020C080910F01909110019C01220F331FB3
:103AC000820F931F0E94EF065B9880910F019091E7
:103AD00010012EC0F1E25B9AFF121AC080910D0115
:103AE00090910E010E94EF065B9880910D019091DC
:103AF0000E010E94EF065B9A80910D0190910E01DC
:103B00000E94EF065B9880910D0190910E0123C0F9
:103B100080910F01909110010E94EF065B988091B7
:103B20000F01909110019C01220F331F820F931FF0
:103B30000E94EF065B9A80910F01909110019C0109
:103B4000220F331F820F931F0E94EF065B98809114
:103B50000F01909110010E94EF060F5F41CF21E20B
:103B60005B9AF21214C080910D0190910E010E9497
:103B7000EF065B9880910D0190910E01FC01AE9EC5
:103B8000C001AF9E900D11240E94EF0610C08091DD
:103B90000F01909110010E94EF065B980FE1809158
:103BA0000F01909110010E94EF060150C1F71F5FB5
:103BB000EFCE80914802882341F0809197038111D4
:103BC0000EC086E30E94A60317C080914702882397
:103BD00049F010924702BCD881E0809338020E94DD
:103BE00017040AC080914602882321F010924602F1
:103BF0008ADA02C00E94480E769889E60E94610720
:103C000083E70E94610711E01F150CF089CEFE01C9
:103C1000E10FF11D17FDFA958181803319F0813391
:103C200009F086E40E9461071F5FEECF8237B9F486
:103C300080913802882329F081E080934702109216
:103C4000380280913A02882329F081E0809346026D
:103C500010923A02DCDD81E0809348025AC0863639
:103C600051F58A81803351F480E18093080180EB23
:103C70008093090181E780930A0107C043E068E06F
:103C800071E0CE0102960E94280889E60E94610731
:103C900086E60E9461078AE30E946107809108011D
:103CA0000E942408809109010E94240880910A0141
:103CB0000E94240835CE883721F580914702882359
:103CC00039F01092470244D881E08093380210C046
:103CD00080914602882321F01092460214DA0EC029
:103CE00082E090E00E94AA0380919703882319F054
:103CF0000E94170403C086E30E94A60310924802A4
:103D000008C0833631F46FE071E0CE0101960E9465
:103D10005808CDB7DEB7EAE00C94612E1092420449
:103D20001092040383E080934E028FEF8093570438
:103D30000895EFE4F2E02081211105C0892BB1F054
:103D400080E090E00895B2E0ED3FFB07B8F7009700
:103D500051F04181DC013C91431305C04281119631
:103D60003C91431751F0E20FF11DE5CF32E0ED3FFA
:103D7000F30719F010F0EDEFF2E0CF01089524E021
:103D8000829FC0011124FC01E85AFB4F80818F3FC4
:103D900091F080934902818180934A0282818093CD
:103DA0004B02838180934C0221E04CE064E089E483
:103DB00092E00C94EA0A08958EEF92E0BADF009741
:103DC00099F020914E02FC013081231768F4E20F34
:103DD000F11D80818093000389E780930103818135
:103DE0008093020381E0089580E008950F931F936C
:103DF000CF93DF932091970326FF16C08C0184E5B3
:103E00000E946107E8010B5F1F4F89910E942408FF
:103E1000C017D107D1F78091970385FF03C08AEFC0
:103E20000E9424080E94AD07DF91CF911F910F914E
:103E3000089586E30E94A60380910003833511F064
:103E40008BE401C08BE90E94F40621E04CE065E0C0
:103E50008EEF92E00E94EA0A0E9417048EEF92E031
:103E6000C5CFE7DF80910003893631F081E0809390
:103E7000FD0289E2809357040895CF9385E390E093
:103E80000E948A088093280486E390E00E948A08B2
:103E900080935604E6E4F4E0CFEFC083C283C4838A
:103EA000C683C087C287C487C68738DF10924F0297
:103EB00081E080932704A8E5B4E0CC93EAE2F4E043
:103EC0008FEF9FEF91838083138212821582148279
:103ED0001496CC9314979783868311861086138645
:103EE00012861896CC93189795878487178616861E
:103EF000118A108A1C96CC93938B828B158A148A14
:103F0000178A168ACF910895ABE0B0E0EAE8FFE1A6
:103F10000C94432E7C018C010F5F1F4F45E0BE01C6
:103F20006F5F7F4FC8010E942808843008F0E3C00B
:103F300099819130A9F4833061F46A8185E390E03E
:103F40000E9485086B8186E390E00E94850895DFDA
:103F5000FDC1809128040E9424088091560493C0DA
:103F6000923009F051C0813039F081E09A8191306E
:103F700009F080E0E82E02C0EE24E39480914F0225
:103F8000811104C088ED93E00E94A0070FE412E0C5
:103F9000F8018081882309F4ABC0F2E00D3F1F07D0
:103FA00008F0A6C022E00F34120719F080E20E9448
:103FB0006107F80181810E942408F80182810E9432
:103FC0002408E11005C0F8018081080F111DE0CF21
:103FD0008AE30E94610783E0F82EF8018081F816D9
:103FE00090F7F3E0FF1528F4F0FE03C08CE20E9486
:103FF0006107DD24D394DF0CF801EF0DF11D808102
:104000000E942408FD2CE9CF933049F480E090E031
:1040100090DE8F5492409EEA981B892F34C09031D5
:1040200039F506E414E0E12CF12CF80180818F3F92
:10403000A1F0FF2019F080E20E9461078E2D0E94FE
:1040400024088AE30E946107F80180810E94240805
:10405000F80181810E942408F3940E5F1F4FE394BE
:10406000F8E0EF12E2CFF11043C086EE93E03EC0DD
:10407000913161F480914404909145046DE770E0C2
:104080000E94102E862F0E94240832C0923181F5A2
:1040900008E514E0E12CF12CF80180818F3FE1F07C
:1040A000FF2019F080E20E9461078E2D0E942408F3
:1040B0008AE30E946107F80180810E942408F801C8
:1040C00081810E942408F80182810E942408F8015D
:1040D00083810E942408F3940C5F1F4FE394F4E063
:1040E000EF12DACFF11004C082EE93E00E94A00735
:1040F0000E94AD072BC144E0BE01695F7F4FC8013C
:104100000E9428082F81293608F480C05A853885F6
:1041100049855C3009F052C0A8E5B4E080E090E049
:10412000FD01E855F4405C91251322C011966C9175
:10413000119763131DC012966C911297641318C0E7
:10414000E85AFB4F2CE023839C01220F331F820F80
:10415000931FFC01EE0FFF1FE65DFB4F11821082E3
:10416000880F991FFC01E45DFB4F11821082D0C0C3
:104170005F3FE9F4E85AFB4F2083318342832CE010
:1041800023839C01220F331F820F931FFC01EE0F2C
:10419000FF1FE65DFB4F11821082880F991FFC0103
:1041A000E45DFB4F1182108210922704B1C001968A
:1041B00014968430910509F0B3CFC8C0E8E5F4E067
:1041C00080E090E0BF0168557440A0812A1318C0B8
:1041D000A181A31315C0A281A41312C0FB01E85A48
:1041E000FB4F5383FC01EE0FFF1FE80FF91FEE0F8B
:1041F000FF1FE45DFB4F81E090E091838083A6C0C8
:104200000196349684309105E9F6A0C0E9812091A9
:104210002804E217C0F1822F90E007964E2F50E05D
:104220008417950784F19A818091560498132BC0C6
:104230009C819F3231F442E06CE0C7010E94570B31
:1042400085C08D819C32B9F48093430421E030E035
:1042500030934504209344042091940330919503B6
:10426000A90164E0869F400D511D112450939503D0
:10427000409394036BC0E21BEE0FF0E0EA5BFB4F50
:104280009083818363C080E090E053DD6C01F8018E
:1042900001900020E9F73197E01BF10BF695E795C7
:1042A00001E00E0FC601800F911D8F5492408F3A8E
:1042B00091050CF047C0F6010083560111E0812FF3
:1042C000880F81501017D0F44501FFEF8F1A9F0A15
:1042D00041E0B4019701280F311DC9010E9428084F
:1042E000133048F010FD07C0F5018081843619F4C1
:1042F0008181809329041F5F5401E1CFFDEFCF1628
:10430000F2E0DF0618F5F601E10FF11D10821EC084
:1043100022E04CE064E0CE0107960E94EA0A8FE0BA
:104320008A8722E04CE064E0CE0107960E94EA0A08
:1043300082E08A8722E04CE064E0CE0107960E948A
:10434000EA0A04C08CED93E00E94A0072B96ECE0F3
:104350000C945F2E0F931F93CF93DF9390912704BC
:1043600091114EC093E0899FE0011124FE01EE0FF0
:10437000FF1FE65DFB4F94E0899FD0011124A85AEE
:10438000BB4F12969C91977040E850E0491B510931
:104390009AEF949F9001959F300D112435952795A4
:1043A00035952795318320838E01000F111F025D03
:1043B0001B4FF801208131812F5F3F4F31832083D4
:1043C000CC0FDD1FC45DDB4F48815981411551057C
:1043D00029F424303105A1F4D2DC0FC0413051055D
:1043E00031F4CDDC82E090E09983888309C04230CB
:1043F000510531F4C4DC19821882F801118210824F
:10440000DF91CF911F910F910895A6E0B0E0EBE00E
:10441000F2E20C94492E809156048A831B8290917B
:104420004304992341F0933019F08DE790E010C0D8
:1044300087E791E00DC0877090E08A519F4F4DE76C
:10444000489F9001499F300D1124C901959587958A
:10445000909345048093440486E4E82E84E0F82E8B
:1044600010E00CE2F70190819F3FC1F08091280499
:10447000810F898380914304882311F00C8303C04A
:104480009C83F70181818D8321E04CE065E0CE01C2
:1044900001960E94EA0ACE010196A8DC1F5FF2E0B5
:1044A000EF0EF11C1830F1F680914304882341F09F
:1044B000833019F41092430403C082508093430464
:1044C0002696E6E00C94652E8091FD02882351F03B
:1044D000B0DC89E2809357048091FD028150809383
:1044E000FD0208951BCCFF920F931F93CF93DF9390
:1044F000FC01F0800181C281D38114818FE580931A
:1045000057041092FD0280912804811105C080910A
:104510005604882309F4A5C08091FE02F81204C055
:104520008091FF02081729F0F9DBF092FE02009358
:10453000FF02809142048F3F09F493C0C0930003AF
:10454000D093010310930203CC23F1F081111CC01E
:1045500080912804181761F0143651F08DEA8C0F01
:10456000823010F0CD3739F48FEF8093420479C058
:10457000C43509F476C08D2F807F803609F071C074
:10458000D067D09301036CC017DC811105C0809106
:104590004204882309F465C080910403811107C097
:1045A000E0914204F0E0E651FC4FE49101C0E82FB5
:1045B000E33541F4C43531F4909142049E5F909309
:1045C000420404C0EC1711F0A9DB4BC0882369F04A
:1045D00080914E028E5F80934E02EEDB81110EC001
:1045E000809142048E5F8093420480914204E82FC0
:1045F000F0E0E551FC4FC491CF3F59F480910003A6
:1046000080930403843661F580912904809302032A
:1046100027C0C093000397E790930103909128046B
:10462000909302038E5F80934204109204038E30B5
:10463000B1F48EEF92E07DDBFC01892B79F0A08153
:10464000B0E08DEF92E08A1B9B0BAE0FBF1FE81707
:10465000F90718F42D912193FACF10825FDBC11175
:1046600000DCCDB7DEB7E5E00C94662E0F931F9308
:10467000CF93DF93EC0100E0802F90E09C01220FAC
:10468000331F280F391FF901E054FF4F1491F9012E
:10469000EF53FF4F25913491112399F0209739F46E
:1046A00080E20E946107812F0E94610708C0888113
:1046B000181305C0CE01F901099581E003C00F5F11
:1046C000DBCF80E0DF91CF911F910F910895CF93C1
:1046D000C0918E0180938E018091ED04882309F4AE
:1046E0003DC08BEE94E00E94CC09209105033091EF
:1046F00006038A3011F08D3011F52115310561F373
:10470000F901E95FFC4F108287E093E0AFDF811190
:1047100011C080E194E00E94A00787E093E00E942E
:10472000950788EF93E00E94A00780E090E09EDF6D
:104730000E94AD071092060310920503CDCF2038DA
:10474000310550F6A9014F5F5F4F50930603409328
:104750000503F901E95FFC4F8083BECFC0938E0152
:10476000CF910895E4E6F0E080818B7F8083299AE1
:1047700084B1876084B9239880E58CBD8DB5816054
:104780008DBD08952091FA083091FB08211531055F
:1047900021F4209113013091140180911101909125
:1047A0001201009741F48DB79EB7409115015091C9
:1047B0001601841B950B2817390718F4821B930BDD
:1047C000089580E090E0089582E40E94610740E24D
:1047D00065E08091FA089091FB080E94B1070E9461
:1047E000AD0783E50E94610740E265E08091130117
:1047F000909114010E94B1070E94AD0785E40E94C8
:10480000610740E265E080911101909112010E94E0
:10481000B1070E94AD0786E40E946107B3DF40E262
:1048200065E00E94B1070C94AD07A2E0B0E0EBE1B7
:10483000F4E20C944D2EE3E7F5E08BE795E0209150
:10484000F10021938E179F07D1F780917305909106
:104850007405492F50E04A30510508F022C1FA0191
:10486000EA5AFF4F0C94372E803879F0823809F0DD
:1048700018C1809177058093E9008091EB0085FB5A
:10488000882780F91092E90006C080916E0590910A
:104890006F05911182609091E800977F9093E800F6
:1048A0008093F1001092F1008091E800982F9E7F94
:1048B0009093E8008F778093E8008091E80082FD74
:1048C000B1C0809172058111F8CFDCC0282F2D7FF7
:1048D00009F0E7C0882319F0823061F036C080917A
:1048E0007505813009F0CEC0933009F080E08093E7
:1048F0006F052BC080917505811127C080917705C8
:10490000877009F4BFC08093E9002091EB0020FF7D
:104910001CC09130A9F49091EB0090619093EB0052
:1049200021E030E0A90102C0440F551F8A95E2F74B
:104930004093EA001092EA008091EB00886003C087
:104940008091EB0080628093EB001092E9008091EF
:10495000E800877F8093E8008091E800982F9E7F91
:1049600065C081119EC0809175059091E800977F88
:104970009093E8009091E800292F2E7F2093E80083
:104980009F779093E8009091E80090FD05C090918A
:1049900072059111F8CF76C08F77982F9068909319
:1049A000E300882309F46EC083E0809372056AC037
:1049B0008058823008F075C0AE014F5F5F4F609144
:1049C000770580917505909176050E94EC02BC01F7
:1049D000892B09F457C09091E800977F9093E800E5
:1049E00089819A8130D11EC0803809F05AC08091E7
:1049F000E800877F8093E800809170058093F10044
:104A00008091E800982F9E7F9093E8008F778093A5
:104A1000E8008091E80082FD05C080917205811157
:104A2000F8CF30C08091E800982F9B7F9093E800EA
:104A30008F778093E80026C0811133C0809175057F
:104A40009091760599270297ECF48091E800877F92
:104A50008093E80080917505809370058091E8004F
:104A6000982F9E7F9093E8008F778093E800809145
:104A70007005882311F084E001C083E08093720503
:104A80000E944E058091E80083FF0EC08091EB00EC
:104A900080628093EB008091E800877F8093E8003C
:104AA00003C00E946605EECF2296E2E00C94692EC8
:104AB0008093E900EBEEF0E0808181608083EDEE91
:104AC000F0E010826093EC0040838091EE00881F3C
:104AD0008827881F08951092F40080E08093E900F1
:104AE0001092F0001092E8009091ED009D7F90935D
:104AF000ED009091EB009E7F9093EB008F5F8730ED
:104B000069F708958091730587FF12C08091E800CE
:104B100082FD05C0809172058111F8CF16C0809189
:104B2000E800982F9B7F0CC080917205882369F064
:104B30008091E80080FFF8CF8091E800982F9E7F59
:104B40009093E8008F778093E800089595E6209190
:104B5000EC00822F817020FF05C08091E80080FF6B
:104B600005C019C02091E80022FD1AC0809172058D
:104B7000882399F08091EB0085FD11C08091E100C0
:104B800082FFE5CF8091E1008B7F8093E10091501F
:104B9000F1F683E0089580E0089582E0089581E0D1
:104BA00008952091790530917A056217730708F40A
:104BB0009B0150E021153105A9F14091E80043FD2A
:104BC0003EC04091E80042FD34C04091720544234C
:104BD000C1F14091E80040FFEDCFFC01CF0121156C
:104BE000310569F04091F2005091F30048305105D1
:104BF00030F481918093F10021503109EFCF609121
:104C0000F2007091F30051E06830710509F050E056
:104C10004091E800642F6E7F6093E8004F774093E7
:104C2000E800C8CF5111C9CF04C080917205882314
:104C300041F08091E80082FFF8CF80E0089581E0A4
:104C4000089582E008952091790530917A056217E0
:104C5000730708F49B0150E021153105B1F1409133
:104C6000E80043FD3FC04091E80042FD35C040915F
:104C700072054423C9F14091E80040FFEDCFFC01EB
:104C8000CF012115310571F04091F2005091F300F0
:104C90004830510538F484918093F1002150310956
:104CA0003196EECF6091F2007091F30051E06830E0
:104CB000710509F050E04091E800642F6E7F609329
:104CC000E8004F774093E800C7CF5111C8CF04C028
:104CD00080917205882341F08091E80082FFF8CF2F
:104CE00080E0089581E0089582E008959C016115B7
:104CF000710551F18091E80083FD2CC0809172050F
:104D0000882351F18091E80082FFF1CF8091F20079
:104D10009091F300892B51F02F5F3F4F8091F1006C
:104D2000F901319780836150710981F79091E80012
:104D3000892F8B7F8093E8009F779093E800D7CFEF
:104D400080917205882341F08091E80080FFF8CFC0
:104D500080E0089581E0089582E0089567D06ED0E4
:104D6000109272051092700510926F0510926E05E8
:104D70008AE482BF19BC89B5826089BD09B400FE8E
:104D8000FDCF8091D800982F9F779093D8008068AE
:104D90008093D8008091D70081608093D700809164
:104DA000D8008F7D8093D8008091E0008B7F809326
:104DB000E0008091E0008E7F8093E0008091E10030
:104DC0008E7F8093E1008091E20081608093E20019
:104DD0008091E100877F8093E1008091E20088600C
:104DE0008093E2008091D80081608093D80008957C
:104DF000B5DFE8EDF0E080818061808381E0809321
:104E0000710578940895AADFE0EEF0E0808181607A
:104E10008083E8EDF0E080818F77808319BC80810A
:104E20008F7E80831092710508950895E8EDF0E07B
:104E300080818E7F80831092E20008951092DA00C4
:104E40001092E10008951F920F920FB60F92112455
:104E50002F933F934F935F936F937F938F939F9382
:104E6000AF93BF93EF93FF938091DA0080FF15C05B
:104E70008091D80080FF11C08091DA008E7F8093EE
:104E8000DA008091D90080FF05C081E0809372052F
:104E9000CCDF03C010927205C8DF8091E10080FF73
:104EA0001DC08091E20080FF19C08091E1008E7FDB
:104EB0008093E1008091E2008E7F8093E2008091F8
:104EC000E20080618093E2008091D800806280934C
:104ED000D80019BC85E080937205A7DF8091E100BE
:104EE00084FF29C08091E20084FF25C019BC89B5E8
:104EF000826089BD09B400FEFDCF8091D8008F7D0E
:104F00008093D8008091E1008F7E8093E1008091B2
:104F1000E2008F7E8093E2008091E20081608093C6
:104F2000E20080917005811102C083E001C084E03D
:104F3000809372057ADF8091E10083FF23C0809126
:104F4000E20083FF1FC08091E100877F8093E10032
:104F500082E080937205109270058091E1008E7F4F
:104F60008093E1008091E2008E7F8093E200809147
:104F7000E20080618093E200AEDD42E060E080E02C
:104F800097DD53DFFF91EF91BF91AF919F918F918B
:104F90007F916F915F914F913F912F910F900FBE35
:104FA0000F901F901895CF9380917205882359F028
:104FB000C091E900C7701092E9008091E80083FD7C
:104FC00034DCC093E900CF910895A0E0B0E0EAEEB0
:104FD000F7E25CC6B82EC92ED62E7A018901289830
:104FE0008FEF0E942603CB2DDC2DCE018D0D911D60
:104FF0006C01CC15DD0529F080E00E942603899321
:10500000F8CFE114F10469F080E00E942603F70173
:1050100080830115110529F080E00E942603F80124
:105020008083289ACDB7DEB7E9E04CC6CF938823BA
:1050300031F01092880586E30E94A60307C085E33D
:105040000E9495038D30A9F7C0E03DC085E30E9422
:105050009503C82F8130D1F78BE30E94A6038AE322
:105060000E94A60310927B0510927D0510927C058C
:1050700010927F0510927E058CEA96E09093810550
:105080008093800510928205C09383051092840559
:10509000809188038093850510928605109287057C
:1050A00060E083E00E949C0362E088E00E949C0331
:1050B00084E30E94A60385E30E9495038D30D9F70F
:1050C00081E0809388058C2FCF9108950F931F93D3
:1050D000CF93DF93182F062F53985298109288037E
:1050E00010928903EA98209A289A8EE190E00E9413
:1050F000EF0628988EE190E00E94EF06289A8DE254
:1051000090E00E94EF0680E30E94A60384E690E010
:105110000E94EF06113041F008F479C0143008F015
:1051200076C0C0E4D4E01DC0CDE8D4E0FE01849197
:105130008134E0F431966491FE0184910E949C03D5
:105140002296F5E0C535DF0789F710C031966491E6
:10515000FE0184910E949C032296F5E0C830DF078F
:1051600079F1FE018491813488F32AC00130C9F0BD
:10517000109388030093890383E30E94A6038EE0C3
:10518000EBE7F5E0DF011D928A95E9F786E0E4EFB1
:10519000F8E0DF011D928A95E9F784E00E94F406A9
:1051A00036C060E087E10E949C0367E083E00E94D4
:1051B0009C0364E584E00E949C0366E785E01CC0D4
:1051C0000130B1F660E087E10E949C0367E083E074
:1051D0000E949C0364E584E00E949C036DE385E0EB
:1051E0000E949C0360E585E10E949C036BE580E1E1
:1051F0000E949C0368EF81E10E949C0362E082E0D0
:105200000E949C036EE280E00E949C03B1CFDF917C
:10521000CF911F910F910895A4E0B0E0E1E1F9E290
:1052200038C590918903923009F08DC1809188032F
:10523000882309F488C180918805813049F030F0D5
:10524000823059F0833009F4B4C0E4C081E07AC1FF
:105250004A9BE0C090938805DDC04B9BDBC020E0FB
:1052600030E040E050E063E080918005909181055E
:10527000ACDE2091850580918005909181052130DB
:1052800071F4BE016F5F7F4F9FD1811157C189813A
:1052900080937B0537D2AC0160E081E050C02330C1
:1052A000D1F5FC0130813435B1F52093860521819B
:1052B0002D3CF1F421E020938705828180937B05CA
:1052C000893008F43BC190E09C012A50310937FF36
:1052D00002C0215F3F4F44E0359527954A95E1F79D
:1052E0002E5F3F4F220F331F0396820F931F28C05C
:1052F0002D3309F023C122E020938705FC01828130
:1053000080937B058C3008F419C1803809F416C1EC
:1053100090E0039615C040E0BE016F5F7F4F99D1CA
:1053200081110CC182E08093860581E0809387051E
:10533000898180937B05E6D1AC0160E080E0F8D103
:1053400090937D0580937C0560917C0570917D052F
:105350006934F2E07F0708F0F1C086E06F3F710525
:1053600009F050F40E949C0360E088E00E949C03D6
:1053700081E08093820502C00E949C038091800599
:10538000909181050396909381058093800580918B
:105390007C0590917D05039790937F0580937E0512
:1053A0001092830583E08093880567E00E949C0348
:1053B00031C04B9B2FC080917E0590917F058F3F20
:1053C000910509F058F480918205811107C060E0D1
:1053D00088E00E949C0381E08093820520E030E019
:1053E00040E050E06FE18091800590918105EDDD16
:1053F00080917E0590917F054F9790937F058093D4
:105400007E0580918005909181054F96909381054E
:10541000809380054A9995C080918805823008F470
:1054200090C01C821B829E012D5F3F4FAE014C5FDE
:105430005F4F60917E058091800590918105C5DD6B
:1054400081E08093840580918505813051F48091BD
:105450007B0558D1AC0169E875E08CEA96E07CD117
:105460000DC080918605823079F480917B054AD108
:10547000AC0169E875E08CEA96E0E7D17C018091A7
:10548000890540D18C012FC0833009F057C080912D
:1054900087058130D1F400917B0510E0C8010A979F
:1054A00097FD0F9624E0959587952A95E1F702964A
:1054B000880F991F080F191F0F5F1F4FA80169E878
:1054C00075E08EEA96E04BD20DC08230B9F50091BE
:1054D0007B0510E00F5F1F4FA80169E875E08EEAB9
:1054E00096E00AD37C01E114F10441F582E60E94C2
:1054F000610780918505833039F48091870582307A
:1055000019F489E50E946107F12C8F2D90E0801736
:10551000910740F4FC01E757FA4F80810E9424086C
:10552000F394F3CF8091970385FF06C08B810E948F
:1055300024088C810E9424080E94AD0710928805DF
:1055400002C080E073DD2496E6E0BFC3FC019181D8
:105550009237B1F482818823C9F0833719F462E06D
:1055600081E009C0843719F462E082E004C0833628
:1055700021F462E083E0AADD09C060E080E0FBCFB7
:10558000933721F48EE294E00C94A0078091890374
:105590008230A1F480918803823039F0833041F069
:1055A000813049F488E294E00BC082E294E008C0C4
:1055B0008CE194E005C088E194E002C084E194E0CD
:1055C0000E94A0070C94AD07CF93DF93EC01A88154
:1055D000E981CA2FC295CF70D0E0C95EDE4F288125
:1055E000AF70B0E0A95EBE4F3C91AE2FA295AF70F8
:1055F000B0E0A95EBE4F9C91EF70F0E0E95EFE4F17
:10560000808151E02F3F09F050E041E03F3F09F039
:1056100040E0542B41E09F3F09F040E0452BA9F4C6
:105620008F3F99F0D0E42D9FA0011124E0E13E9F2F
:1056300090011124242B282BF4E09F9FC0011124FA
:10564000822BEB01888380E001C081E0DF91CF9164
:105650000895DC0111968C911197411118C0129692
:105660009C911297E92FEF73F0E0E95CFE4F5081B7
:10567000E82FEF7024E0E29FF001112492959695B7
:1056800096959370E92BE95CFE4F908102C090E003
:1056900050E0EC9182958F70AE2FA370F0E1AF9F38
:1056A000D0011124A82BA95CBE4FAC91E695E695DC
:1056B000F0E0E95CFE4F3081E1E0AF3F09F0E0E06F
:1056C00081E03F3F09F080E0E82B81E05F3F09F097
:1056D00080E08E2B99F49F3F89F080E1389F900104
:1056E00011242A2BFB01208341110AC0F0E19F9F66
:1056F000C0011124852BFB01818302C081E0089544
:1057000080E00895482F50E08A3150F09A012A51E4
:10571000310984E0359527958A95E1F72D5F01C021
:1057200022E0CA010196820F911D820F911D0895FA
:10573000882331F0CA0161110196880F991F0895DD
:10574000CA01880F991F840F951F9695879561113F
:1057500001C040FD01960895A0E0B0E0E1EBFBE25E
:105760008EC25C014B017A01C12CD12C00E010E00B
:10577000C0E0D0E0612C712C22E1422E512CE114CA
:10578000F10409F456C0B401C5011EDF811154C0F3
:1057900082E0E816F104A1F0EAE06E16710460F010
:1057A000C3010A97B2013CD2AC0121E090E0452B45
:1057B00009F020E0022F192FC114D104A1F005C077
:1057C000C114D10499F001E010E0C095D095DD2717
:1057D000F401808190E0C817D90789F5C12CD12C3C
:1057E000C0E0D0E019C00115110589F09E01209597
:1057F0003095232F3327F401808190E02817390753
:10580000F1F4CC24C394D12C00E010E005C0F401E5
:105810006081CE01EFD1EC01F1E0EF1AF1088FEFDA
:10582000681A780AE2E0AE0EB11CFFEF8F1A9F0AE9
:10583000A6CF80E090E005C081E090E002C082E069
:1058400090E0CDB7DEB7E0E136C2A0E0B0E0EAE23A
:10585000FCE217C26C018B014A01C0E0D0E0E12CF0
:10586000F12C22E1622E712C8114910409F471C093
:1058700081E088169104D9F441E0B801C601E9DE5F
:10588000882319F081E090E066C05701EFEFAE1A6F
:10589000BE0A9E01209530953327F801808190E063
:1058A0002817390709F451C082E090E054C040E065
:1058B000B801C601CEDE8111E5CFF2E08F1A910862
:1058C000570182E0A80EB11C8114910451F0EBE065
:1058D000AE16B104D0F0C7010A97B301A1D1892B4C
:1058E000A1F4C095D0959E013327F801818190E005
:1058F00028173907C9F6CD2FDD27808190E0C8171A
:10590000D90791F6C0E0D0E01AC0F8016081CE015D
:10591000F1E08F16910471F46DD1EC019C0120959A
:105920003095232F3327F801818190E0281739071C
:1059300031F0BACF5FD1F80161815CD1EC01F3E0C5
:10594000CF0ED11C0E5F1F4F02C0812C912C750110
:105950008BCF80E090E0CDB7DEB7EEE0AEC1A4E043
:10596000B0E0E4EBFCE289C19C838B837B013A01CC
:105970006C015B012C012AE0420E511C4B018C0191
:1059800080E090E0D8016C9135D1F80121918F0130
:10599000D4012D934D01E415F505A1F7EB81FC81B0
:1059A000428580959095228533853227232732279B
:1059B0008217930719F082E090E09BC0D7011A96F6
:1059C0004C931A97EB81FC8183851B968C93C301C2
:1059D0000C9762E170E024D14B010CE010E08114DF
:1059E000910409F441C02601FCE04F0E511C9501C1
:1059F000245F3F4F3A832983212C312C80E090E0B3
:105A0000D2016C91F7D0F20121912F01A981BA81C5
:105A10002D93BA83A983BFEF2B1A3B0AE0E12E1620
:105A2000310471F7F601448D22E1A20EB11C80957C
:105A30009095242F30E0322F2227558D62E1C60E3B
:105A4000D11C252B8217930709F0B5CFD5011A96E3
:105A50004C931A97F60183851B968C930E5E1F4F0D
:105A6000F1E08F1A9108BBCF0615170509F43FC066
:105A7000CB80DC80C00ED11E5701A00EB11E80E08D
:105A800090E022E0621A7108F80131964F01061584
:105A9000170558F4D6016C91ADD0F60121916F0134
:105AA000D5012D935D018401EFCFEB81FC81E00FE7
:105AB000F11F40812B813C81280D391D3A832983B8
:105AC00080959095242F30E0322F2227A981BA812A
:105AD0005C91252B8217930709F06DCFF701E00F3A
