:1000000040C200005AC2000058C200000C943713CE
:1000100054C2000052C2000050C200004EC2000094
:100020004CC200004AC200000C941B2F46C20000C4
:1000300044C2000042C2000040C200003EC20000B4
:100040003CC200000C94D41238C2000036C200003A
:1000500034C200004DC5000030C200002EC20000B6
:100060002CC200000C94CF1A0C94CF1926C20000A9
:1000700024C2000022C2000020C200001EC20000F4
:100080001CC200001AC2000018C2000016C2000004
:1000900014C2000012C2000010C200000EC2000014
:1000A0000CC200000AC2000008C200002D2C5F2C08
:1000B0004A2D5F2C4A2DAA2CD12C4A2DED2C152D22
:1000C000413918420C0943FB0365350946430B4788
:1000D000460B68A30C693F224BEF0B4C65066CFB8B
:1000E000084D840B6DDF2B52780854842774D80593
:1000F00055700C757E1556750976691957BA0858EA
:10010000260E78C203596B245A921E7A8E21000063
:10011000002A03430055004C003400330033000034
:10012000002A03430055004C003800360038000018
:1001300000160353004800410000000403090409AD
:1001400002430002010080320904000001020201A2
:100150000005240001100524010301042402060502
:1001600024060001070582030800FF0904010002BC
:100170000A00000007050402400000070583024052
:1001800000001201100102000008EB034B200000E8
:1001900001020001202F2000203D2000072E050D28
:1001A000D391FF080500000C0021656A2D3B132246
:1001B000F862073F181D1CC700B0876BF8B611EA3C
:1001C0002A001F41000D2E2D07D3913D043200005F
:1001D00006002165CA55E43023B900070018146CE5
:1001E000070090876BF85611E92A001F41000003B1
:1001F0000F1E2627000000030F1E25363867000358
:100200000F256740605000030F275188838100034A
:100210000F2750C8C3C2002700000000000000677D
:1002200000000000000000500000000000000081FD
:1002300000000000000000C2000000000000504C60
:100240004C310D0A00504C4C300D0A005620312E16
:1002500036372043554C383638005620312E363745
:100260002043554C3433330043554C5F5633002004
:100270002F2000203D20004C4F56460D0A00424FD3
:1002800056460D0A004552523A4343410D0A000BAF
:1002900008105B11F81547191D1A1C1BC71C001DFF
:1002A000B221B623EA0007022E030D04E905CA07AE
:1002B0000C0B060D210E650FCA10C8119312031501
:1002C000341733181819161B4321562500261129F7
:1002D000592C812D353EC3000D022D030106FF0769
:1002E0000008320B060D210E650FCC106A11831227
:1002F0001013221550181819161B431C401D91236A
:10030000E9242A2500261F3E504C454E4552520DE9
:100310000A004C4F56460D0A004C454E4552520DB0
:100320000A000007024604C605260B0610C81193F2
:10033000120313221534173F182819161B43215690
:10034000250026110D210E660F9A070C160720F8BE
:100350001E871F6B29592C812D353EC3FF000001DC
:10036000022E030104AA050F06FF070008000B0672
:100370000D210E740FAD104B11F8121613721541AA
:10038000181819161B0323E9242A2500261F3E509E
:100390000001022E030104AA050F06FF0700080052
:1003A0000B060D210E660F6610CA1193120613522A
:1003B0001535181819161B0323E9242A2500261FB2
:1003C0003E500001022E0301045505F006FF070010
:1003D00008000B060D210E660F9910591183121E8D
:1003E00013521535181819161B0323E9242A250062
:1003F000261F3E500D2E2D07D3913D0432000006DE
:100400000010B07155E43023B900070018146C07D0
:100410000090876BF85611E92A001F41000D2E2D20
:1004200007D3913D04320000060010ABA5550A30F9
:1004300023B900070018146C070090876BF8561159
:10044000E92A001F41004E2F4100454F420D0A008E
:100450004E2F41004E2F410000535300547D7DFF2D
:10046000FF4B4B7E7E0020697320756E6B6E6F773D
:100470006E2920557365206F6E65206F66003F20E2
:10048000280011241FBECFEFDAE0DEBFCDBF11E0A0
:10049000A0E0B1E0EAE0F3E602C005900D92AC34D2
:1004A000B107D9F726E0ACE4B1E001C01D92A03459
:1004B000B207E1F70CD00C948331A2CDF89481E01F
:1004C00085BF82E085BFE0E0F8E3099508959FE0ED
:1004D00088E10FB6F894A895809360000FBE9093C2
:1004E000600090E080E80FB6F894809361009093EC
:1004F00061000FBE2E9A2D9A04B603FE0AC083E354
:1005000090E0DCD5882329F060E083E390E0D1D54A
:10051000D5DF89EF87BD84E085BD82E084BD80930F
:100520006E00109280008AE08093810084B7877FFC
:1005300084BF6E9A0E94AD2BC5D60E94F02E0E94F9
:100540003D270E94050E82E69BE290939B038093D9
:100550009A030E94D81489E08093500176980E94F3
:10056000CB2F01D20E94251039D30E94D0150E94B2
:10057000C9160E941A1E0E945D200E94C718EFCF64
:10058000292F33272230310559F02330310569F006
:100590002130310539F582E190E022E831E026C0D2
:1005A00083E490E02FE331E021C099278130910569
:1005B00039F018F0029751F015C0EBE3F1E002C0FA
:1005C000E1E3F1E0849190E09F0110C01E9B03C025
:1005D00021E231E002C021E131E0E1E2F1E0849189
:1005E00090E004C080E090E020E030E0FA01318348
:1005F000208308958EBD0DB407FEFDCF8EB50895FE
:10060000EF92FF920F931F93CF93C82F8A3008F079
:10061000C8E028E0C29F800111248BE290E00B52D9
:100620001109FC01E00FF11FE251FE4F64917C01C2
:100630002FEFE21AF20A3DD5C7018333910589F7FE
:10064000C550C53010F067E101C061E184E290E07F
:1006500030D5CF911F910F91FF90EF900895CF93D8
:10066000DF9382E090E0FC01ED53FE4F6491EC01DA
:1006700021961FD5CE01AB97B1F787E390E0FC013F
:10068000EB59FE4F6491EC01219613D5CE01C03693
:10069000D105A9F71E9918C060E18FE090E009D557
:1006A00060EB80E190E005D561E781E190E001D564
:1006B00060E184E490E0FDD460EB85E490E0F9D45F
:1006C00061E786E490E0F5D488E09ADFDF91CF918E
:1006D00008952898806C8EDF80E08CDF289A08953A
:1006E000CF93C62F2898806485DF8C2F83DF289ACC
:1006F000CF91089528987EDF289A0895EF92FF926F
:100700000F931F93CF93DF93EC0110924602EA9868
:10071000209A289A8EE190E036D328988EE190E0D6
:1007200032D3289A8DE290E02ED380E3E3DF84E693
:1007300090E029D3289880E45DDF8E01075D1F4F8C
:100740007E018FEFE81AF80ACE01B8D453DFE70133
:10075000E016F106A9F7289A28988EE74BDF8BE27E
:1007600090E0EC012196AAD445DFCE01E397C9F7CA
:10077000289A83E3BFDF81E00BD3CDB7DEB7E6E095
:100780000C943230A1E0B0E0E8ECF3E00C941A30C5
:1007900022E0298341E0BE016F5F7F4F01962CD498
:1007A00089812EDF82E090E0A9DF2196E2E00C94BF
:1007B0003630CF93EA9886E39DDFCFEF85E39ADF6B
:1007C000C1508077803229F08AE090E0DCD2C111FC
:1007D000F5CFCF910895CF93CFEF84E38BDFC15056
:1007E0008077803129F08AE090E0CDD2C111F5CF39
:1007F000EA9ACF910895A2E0B0E0E1E0F4E00C9431
:1008000018308C01FC0181818737E9F441E0BE0199
:100810006F5F7F4FC8010296EFD3892BA1F041E0B3
:10082000BE016E5F7F4FC8010496E6D3892B59F055
:100830006A81898155DF83E35DDFCDDF8981D8D38C
:100840008A81D6D32CC041E0BE016E5F7F4FC801C4
:100850000196D2D3892B21F18A81893969F410E07C
:10086000812F37DFC5D3812F8770873009F449D3B3
:100870001F5F1033A9F714C02CDF182F83E4F5D2C3
:100880008A81B6D388E991E02FD3812FB1D384E94F
:1008900091E02AD340E262E0812F90E036D331D359
:1008A0002296E4E00C94343086E324DF10929C031B
:1008B0001092FA0110924602089582E090E01EDF45
:1008C00081E080939C031092FA01109246020895F1
:1008D0000F931F93CF93DF93D82FC0E0062F10E024
:1008E00085E3F7DE8D1731F0C8014DD2C150C1F755
:1008F00081E001C080E0DF91CF911F910F910895B9
:1009000085E2E7DE8F3311F080E0089586E3F2DEC2
:1009100080914C01811104C085E492E0E5D202C0CF
:100920008DE3E8DE83E3E6DE64E081E0D1DF85E2AB
:10093000D0DE8F3349F780914C01811103C08EE3E3
:1009400092E0D2D281E0089585E3C3DE8D3051F488
:1009500085E2BFDE8F3331F4D3DF84E3CBDE8077F3
:100960008031D9F7089580913306843009F069C049
:100970008093E90080914D0181112AC08091E800A7
:1009800085FF26C08091F2009091F300892B31F011
:100990006091F1008CEA95E0BDD4F4CF8091E8003D
:1009A000982F9B7F9093E8008F778093E80081E0F9
:1009B00080934D0183EB94E0909399038093980387
:1009C000E0919A03F0919B0381E0099510924D010B
:1009D00083E08093E90080912B05882391F1809139
:1009E000E80085FF2EC0F89480912B05882369F0DC
:1009F0008091F2009091F3008034910530F489E207
:100A000095E09ED48093F100EFCF78942091F2008E
:100A10003091F3008091E800982F9E7F9093E8003A
:100A20008F778093E8002034310559F40E949E2D81
:100A30008091E800982F9E7F9093E8008F778093B5
:100A4000E800089542E061EC82E00E94502D42E30C
:100A500061E883E00E94502D42E360E884E00E9458
:100A6000502D10920001109201011092020110927B
:100A7000030108958091340690913506913229F052
:100A8000923261F1903299F512C0813A81F58091EC
:100A9000E800877F8093E80067E070E080E091E005
:100AA0000E94C92D8091E800982F9B7F11C0813250
:100AB000F1F48091E800877F8093E80067E070E0C0
:100AC00080E091E00E946E2E8091E800982F9E7F3A
:100AD0009093E8008F778093E8000895813239F48D
:100AE0008091E800877F8093E8000C947A2D089528
:100AF0001F920F920FB60F9211248F939F93AF9373
:100B0000BF93EF93FF9380919E0390919F03A091D9
:100B1000A003B091A1030196A11DB11D80939E0376
:100B200090939F03A093A003B093A10380919D0392
:100B30008F5F80939D03EBEEF4E080819181181626
:100B400019061CF4019791838083369685E0E33083
:100B5000F80799F78091050590910605009729F00F
:100B600001979093060580930505809118058F3FA6
:100B700019F0815080931805FF91EF91BF91AF91CB
:100B80009F918F910F900FBE0F901F901895FC01B1
:100B90009FB7F89440919E0350919F036091A003EA
:100BA0007091A10340835183628373839FBF089533
:100BB000A4E0B0E0EEEDF5E00C941A30CE01019621
:100BC000E6DF8C8115D28B8113D28A8111D2898183
:100BD0000FD297D12496E2E00C9436300F931F93F6
:100BE000CF9380919E0390919F03A091A003B09119
:100BF000A10320914F01281709F463C080919E033F
:100C000090919F03A091A003B091A10380934F0105
:100C1000A8950BEE14E0C0E0F80180819181892B4A
:100C200019F48C2F0E94A829CF5F0A5F1F4FC43090
:100C300099F78091050590910605892B11F40E9482
:100C4000032A80911805811102C00E94602A8091B8
:100C50002B04882339F0815080932B04811102C02A
:100C60000E94641680919D038D3758F110929D0368
:100C70008091070181FF04C09EB180E489278EB96D
:100C80008091A2039091A3038031FEE09F0728F496
:100C900001969093A3038093A20380914E018F5FEE
:100CA0008C3319F080934E010CC010924E0180914C
:100CB000EA048F5F8C3318F48093EA0402C0109228
:100CC000EA04CF911F910F910895A0E0B0E0EBE608
:100CD000F6E00C9413308C016EE070E00E946231FB
:100CE0008D3009F04BC0769A80914602882339F006
:100CF000109246028AE391E0A9D7D1E001C0D0E08A
:100D000080919C03811101C0D8DD53DDC4E06801EE
:100D10008DE0C80ED11C5B9A88EE93E034D0780148
:100D2000EFEFEE1AFE0AF701B1907F015B98F1E355
:100D3000BF1619F080ED97E002C088EE93E023D053
:100D40005B9A81E3B81619F088EE93E002C080ED5B
:100D500097E019D0EC14FD0431F75B9883E218D0CA
:100D6000C150C9F68091A503882311F034DD02C07B
:100D700086E3C0DCD1110E94331C7698CDB7DEB774
:100D8000E9E00C942F30880F991F0197F1F708952F
:100D900020ED37E0815020F0F9013197F1F7FACFDB
:100DA0000895CF93DF93EC018B81843509F05AC00D
:100DB000FE0133962881DE0150964DE0421748F03F
:100DC00050E030E0C9010F974817590709F04AC0B1
:100DD00005C08D918B33A1F34F5FF0CFD9011E97E2
:100DE000AE0FBF1F8C918435E9F59C8111968C91D3
:100DF0001197981337C09D8112968C911297981372
:100E000031C09E8113968C91139798132BC09F81AC
:100E100014968C911497981325C021513109E20F33
:100E2000F31F15968C911597808316968C911697C3
:100E3000818319968C91199782831A968C911A97AF
:100E400083831B968C911B9784831C968C911C9793
:100E500085831D968C91868398819A5098839A8178
:100E60009A509A83DF91CF910895CF93C82F8091A4
:100E70003306843079F48091500180FF0BC080915B
:100E80002B0587FD70DD6C2F89E295E043D2CA30D7
:100E900009F469DD809134048823C9F08091500100
:100EA00083FF15C0CA3099F0CD3011F06C2F01C00E
:100EB0006BE388EA93E02ED2CD3019F488EA93E010
:100EC00070DF83E080932B0482E080933304CF9122
:100ED0000895CF93DF93EC018991882311F0C5DF4A
:100EE000FBCFDF91CF910895CF93DF93EC01FE010B
:100EF0008491882319F0B9DF2196F9CFDF91CF9142
:100F000008958DE0B2DF8AE0B0CFA6E0B0E0EBE874
:100F1000F7E00C941830362F1E8225E0EAE0F0E06E
:100F2000215001E010E00C0F1D1F020F111DBF0129
:100F30000E94DD2F805DD8018C93CB01315000974A
:100F400069F02111EDCF0AC0222359F02150E1E0D0
:100F5000F0E0EC0FFD1FE20FF11D4083315037FF31
:100F6000F3CF81E090E08C0F9D1F820F911DB1DFC8
:100F70002696E4E00C943430A5E0B0E0E2ECF7E033
:100F80000C941830FC011D8294E02E2F2F7091508C
:100F9000A92FB0E02A3010F4205D01C0295C01E0E7
:100FA00010E00C0F1D1FA00FB11F2C9384E0F695CD
:100FB000E7958A95E1F76150309739F7615067FD01
:100FC0000BC0992349F09150E1E0F0E0EC0FFD1FD8
:100FD000E90FF11D4083F2CF21E030E02C0F3D1FDF
:100FE000290F311DC90175DF2596E4E00C943430DA
:100FF00040E362E090E0C0CFDC01FB0130E020E0A4
:101000009D919923B1F0913608F0905280ED890FAF
:101010008A3010F4982F05C08FEB890F863028F4A2
:101020009753922B332389F006C0903249F39A33B9
:1010300039F3CF0107C09F012F5F3F4F908341508D
:1010400049F4C901861B970B0895292F2295207F0B
:1010500031E0D6CFF901D2CFFC0120E030E08AE0C8
:101060009191992379F040ED490F4A30C8F7829F5A
:10107000A001839F500D11249A0120533109290F9B
:10108000311DEECFFB01318320830895982F929577
:101090009F709A3010F4905D01C0995CFB019083C1
:1010A0008F708A3010F4805D01C0895CFB01818300
:1010B00008950E947531F999FECF08950C946D3111
:1010C00008950F931F93CF93CFEFC60FCF3F61F0DB
:1010D0008C010F5F1F4FF2DF8BDFCC2311F08AE30F
:1010E000C4DEC150C801F2CFCF911F910F91089576
:1010F000A2E0B0E0EEE7F8E00C941730FC012181AB
:101100002D3421F466E08AEF93E005C0203529F400
:1011100060E18AED93E0D5DF28C01A82198242E0AF
:10112000BE016F5F7F4F019667DF823031F4098126
:101130001A8110270127102702C0098110E0C80179
:10114000BDDFF82E82E591DE40E364E0C80114DFE4
:1011500083E792E0C9DE8F2D4BDF8FE692E0C4DE9D
:1011600040E262E08F2D90E0D0DECBDE2296E5E01B
:101170000C943330A6E0B0E0E0ECF8E00C941430CE
:101180008C0143E0BE016F5F7F4F019635DF8230F7
:1011900070F1823019F4C980D12C05C0C980DA8081
:1011A000DC24CD24DC247C01FF24FE01EE0DFF1D98
:1011B0006081C6017EDFEE0CFF1C8FEFE81AF80A93
:1011C0000E0D1F1DF8018081882389F041E0BE01CA
:1011D0006F5F7F4FC80110DF892B49F0EFEFCE1A08
:1011E000DE0A6981C60165DF0E5F1F4FEBCF2696D1
:1011F000E8E00C94303041E067E071E00196FCDEFD
:101200008091070180FF02C0769A01C076986091B4
:10121000070184E390E04DCFA1E0B0E0E2E1F9E026
:101220000C941A301982009731F041E0BE016F5FD3
:101230007F4F0196E1DE89818F3F09F4FFCF88233C
:1012400021F061E083E390E034DF0E94FB2E1092F6
:101250006E00F89498E088E10FB6F894A895809312
:1012600060000FBE90936000FFCFCF93DF93EC013F
:1012700061E080E090E01DDF63E481E090E019DF51
:10128000EED960E080E690E014DF60E081E690E077
:1012900010DF60E083E390E00CDF60E084E390E047
:1012A00008DF60E080E690E004DF60E081E690E047
:1012B00000DF8981883719F080E090E0ADDFDF91B1
:1012C000CF91089580E090E0F9DE813029F481E04B
:1012D00090E0F4DE833419F080E090E0C6DF84E330
:1012E00090E0ECDE809307010895FC018181883451
:1012F00019F488E692E007C01E9903C08AE592E0DF
:1013000002C08CE492E0F0DDFCCDFC011282108280
:1013100011820895FC019FB7F894828187FD0EC069
:101320008F5F8283208181E0820F8083DF01A20FA3
:10133000B11D13966C93803809F410829FBF0895F5
:10134000FC012FB7F8948281811102C02FBF08954C
:101350009FEF980F9283918181E0890F8183DF0154
:10136000A90FB11D13969C91803809F411822FBFEB
:10137000892F0895FA019081882369F0DB01A90F74
:10138000B11DE1E0F0E0022E01C0EE0F0A94EAF791
:101390008C91E82BEC93222319F08FEF820F0BC076
:1013A00081E0890F8C3010F4FA018083FB01E80F93
:1013B000F11D108287E090E00895CF93C82F5B9ACB
:1013C000882319F08091530102C08091550120E1DA
:1013D000829FC0011124D7DC5B98CC2319F0809147
:1013E000520102C08091540120E1829FC00111246A
:1013F000CADCCF910895AAE0B0E0E1E0FAE00C94F5
:101400000A304C01B62E422EDE2CE42EF12C970130
:101410002E5F3F4F8C2D8A0D029F800D1124082EC8
:10142000000C990B2091A2033091A30328173907D0
:1014300020F487E792E058DD9DC0281B390B3093DC
:10144000A3032093A203769A80914602882341F059
:10145000109246028AE391E0F9D321E0298301C08A
:10146000198280919C03811101C027DAA2D9E0E1A1
:10147000CE9EC00111249B838A8380E1A89E9001A7
:1014800011243D832C83EB2DF0E0FF83EE83662453
:101490006394712C512CC11002C0AA2041F05B9AB8
:1014A0008A819B8170DC5B988C819D816CDC1886C5
:1014B0002885822F220F990BEE81FF818E179F07BF
:1014C00034F480E07ADFF885FF5FF887F1CFBB2046
:1014D00011F081E072DF10E0812F012E000C990BDA
:1014E0009A8789878E159F05D4F487E0282E312CA2
:1014F00029853A85280D391D3A872987C301022C91
:1015000001C0880F0A94EAF7E985FA85908189235A
:1015100054DFF1E02F1A310888F71F5FDDCF17E0A5
:10152000880D991D9A878987812F012E000C990BB0
:10153000481659066CF4C301012E01C0880F0A94A5
:10154000EAF7E985FA859081892337DF1150ECCFDE
:101550008D2D1EDC015009F09ECF8091A5038823BC
:1015600011F039D902C086E3C5D8F981F1110E9482
:10157000331C76982A96E2E10C942630ADE0B0E078
:10158000E4ECFAE00C940F307C01D62E842F022F6D
:101590005701A60EB11C462FB7016DD3F50180830C
:1015A00011E01D0D1D86198227E0712CCC24C394F7
:1015B000D12C97E0A92EB12C4701870C911C7116F4
:1015C00058F5C6010A2C01C0880F0A94EAF7F40105
:1015D0009081AE01435F5F4FBE016F5F7F4F8923F4
:1015E000C9DE282FF1E0AF1AB10848F7F401808175
:1015F000082E82958025082E8695869580258F5FFA
:1016000086958170AE01435F5F4FBE016F5F7F4F74
:10161000B1DE282F7394CDCF222311F0215004C0C6
:101620008D858F5F8D8727E089E1809354018093BA
:10163000550185E28093520180935301A12CC12C66
:101640008AE0E82E4D856CE0CE010196D4DE2D9621
:10165000EDE00C942B30ACE0B0E0E1E3FBE00C9467
:101660001830162F042F4BE0BE016F5F7F4F01969D
:10167000C3DC202F412F682FCE0101967FDF2C96EF
:10168000E4E00C94343043E066E0E5CFAF92CF92D3
:10169000EF920F93CF93DF93CDB7DEB760970FB67E
:1016A000F894DEBF0FBECDBF40E1BE016F5F7F4F3C
:1016B0000196A2DC69814A810B818C81809355015E
:1016C0008D81809354018E81809353018F8180930B
:1016D0005201E02EE2948FE0E8220F70242F2F7049
:1016E00042954F70A12CC12CCE01089684DE6096E5
:1016F0000FB6F894DEBF0FBECDBFDF91CF910F9133
:10170000EF90CF90AF900895A9E1B0E0EAE8FBE058
:101710000C9410304BE08E010F5F1F4FB801019603
:101720006BDCF82E89E0F81256C089E180935401F1
:10173000809355018093530182E38093520169E0C5
:10174000C801A3D2F801EF0DF11D8083198E1D860B
:10175000680127E088248394912CE12CF12CBC2C87
:10176000B01AF9E0FB1528F1C4010E2C01C0880F56
:101770000A94EAF7F6019081AE01475E5F4FBE0121
:10178000635F7F4F8923F6DD282FFFEFEF1AFF0AF3
:1017900088E0E816F10429F7AE01475E5F4FBE010D
:1017A000635F7F4F81E0E6DD282FEFEFCE1ADE0A80
:1017B000D4CF222311F0215004C0898D8F5F898FEF
:1017C00027E0A12CC12C8AE0E82E03E0498D6CE0D3
:1017D000CE010D9610DE6996ECE00C942C30A9E158
:1017E000B0E0E5EFFBE00C9411304BE09E012F5F81
:1017F0003F4F7901B9010196FFDB182F85E38093F4
:10180000550196E1909354019093530180935201B6
:10181000612FC70146D2F701E10FF11D80839924A2
:101820009394910E198E1D86670127E0AA24A39434
:10183000B12C8C2D8E19891508F044C000E010E001
:10184000C501002E01C0880F0A94EAF7F6019081C5
:10185000AE01475E5F4FBE01635F7F4F89238ADD24
:10186000282F0F5F1F4F0430110551F7AE01475E5F
:101870005F4FBE01635F7F4F81E07CDD282FC50194
:10188000002E01C0880F0A94EAF7F6019081AE019C
:10189000475E5F4FBE01635F7F4F89236BDD282F5B
:1018A0000F5F1F4F0830110551F7AE01475E5F4FC4
:1018B000BE01635F7F4F81E05DDD282FFFEFCF1A10
:1018C000DF0AB7CFA12CC12C8AE0E82E03E0498DB6
:1018D0006AE0CE010D968FDD6996EBE00C942D3019
:1018E000AF92CF92EF920F93CF93DF9300D000D0BF
:1018F000CDB7DEB743E0BE016F5F7F4F01967CDB63
:101900008AE68093550194E29093540191E290937A
:1019100053018093520180E88C83A12CC12C8FE06D
:10192000E82E03E026E043E060E0CE01019663DDAF
:101930000F900F900F900F90DF91CF910F91EF903C
:10194000CF90AF900895AF92CF92EF920F93CF9335
:10195000DF93CDB7DEB72C970FB6F894DEBF0FBE7E
:10196000CDBF4BE0BE016F5F7F4F029645DB8530F8
:10197000C1F48EE3809355018CE18093540181E2A0
:10198000809353018AE38093520185E2A82E9AEF57
:10199000C92EE12C05E024E044E068E0CE01019688
:1019A0002ADD2C960FB6F894DEBF0FBECDBFDF91B7
:1019B000CF910F91EF90CF90AF900895A0E0B0E05D
:1019C000E4EEFCE00C941030DC01109271011092F6
:1019D00086011196DC901197DD0CDD0CDD0C139661
:1019E0008C911397D81A8D2D97E0B92EBD0C1092BB
:1019F000720128E0D22ED80E71E090E040E087E03E
:101A000057E0C12C37E0E32EF12C01E010E07D150A
:101A100009F47DC0FD01EC0DF11D248130E0052E9F
:101A200002C0359527950A94E2F721703327552394
:101A300011F0515002C0C39457E06B3479F48330F5
:101A400009F049C0411108C0232B09F05DC0109274
:101A500071019093860170C040E03FC08F3F39F51F
:101A60006634B1F4E92FF0E0EE58FE4FE0810E2E1F
:101A7000E295E0250E2EE695E695E025EF5FE695EA
:101A8000E170CE2F812CD82D2C173D0741F004C0DA
:101A9000653429F4232B19F440937101DACF9F5F49
:101AA000E92FF0E0EE58FE4F108287E02EC0232B86
:101AB00049F1663469F4E92FF0E0EE58FE4FA0805A
:101AC0009801082E01C0220F0A94EAF72A2919C0AA
:101AD000653429F017C08F3FE9F2232B99F0E92FE5
:101AE000F0E0EE58FE4F9701281B310987FD339532
:101AF000480102C0880C991C2A95E2F794013081B4
:101B0000232B2083815001C041E07F5F80CF409331
:101B1000710190938601B71678F4653431F48F3FE4
:101B200021F49F5F9093860102C04111FACF81E0BA
:101B300090918601911101C080E0CDB7DEB7ECE055
:101B40000C942C3010926F00E09189018CE1E89F99
:101B5000F0011124E657FE4F10828091A4038D7F7F
:101B60008093A4030895FC018181843108F0EACFB9
:101B7000662389F0DF01A80FB11D21E030E003806A
:101B800002C0220F331F0A94E2F714969C91149717
:101B9000292B14962C939381992319F091509383B8
:101BA000089597E093838F5F8183E80FF11D14827E
:101BB0000895DC01362F11962C911197E22FF0E059
:101BC00050E09C91BF01641B750B655F7F4F6731CF
:101BD0007105C8F4892F90E0632F70E09C01261BEB
:101BE000370B255F3F4F2731310568F49F01280FE0
:101BF000391F640F751F261B370B255F3F4F81E090
:101C00002731310508F080E00895539A5B98529887
:101C1000E9E6F0E080818061808388E097E090933E
:101C2000A3038093A203EAE8F1E0148E10AE1092B1
:101C3000DE0110929C0308958091A503882321F072
:101C40000E945D040C94EB030C945404FC0121816C
:101C500021110BC08091A503CBD940E265E08091B2
:101C6000A2039091A30351D94CC941E065EA73E006
:101C70000196C2D9E1CF442339F04150FB01E40F72
:101C8000F11D9081890FF7CF08959C0180E06623B4
:101C900039F06150F901E60FF11D90818927F7CFE6
:101CA0000895FC017091710140E095E020E0662309
:101CB00099F06150DF01A60FB11D3C91532F529551
:101CC0005F702527950F772311F0442319F03F709B
:101CD0002327930F4F5FEBCF920F30E1939FC0010B
:101CE0001124822B0895FC0182819381A081B1810E
:101CF000A80FB11D2C9130E0092E02C03595279513
:101D00000A94E2F721703FEF390F3383911104C039
:101D10008F5F828387E08383822F0895A0E0B0E005
:101D2000E4E9FEE00C9411308C01942EC62ED12CE7
:101D3000C0E0D0E0B12CAA24A394760121E0E21AFD
:101D4000F108CC15DD05C9F0C801CDDF882399F075
:101D5000992051F0C7018C1B9D0B2A2D01C0220F29
:101D60008A95EAF7822F06C08A2D0C2E01C0880FB3
:101D70000A94EAF7B82A2196E4CF8B2DCDB7DEB7C7
:101D8000EBE00C942D30A4E0B0E0E9ECFEE00C9424
:101D900011301B8227E02C839C012C5F3F4F3A833C
:101DA000298310928601FC012181338187E090E034
:101DB000831B9109F8E02F9F800D911D112485341C
:101DC00091050CF44FC0912C00918601063070F5FE
:101DD000E02EF12C40E068E0CE0101969FDF9701F4
:101DE000A9014E585E4F7A01FA018083182F012E07
:101DF00012951025012E169516951025CE010196E7
:101E000072DF1F5F11FBAA24A0F8B12C90E0A81686
:101E1000B90641F5CE01019666DF811123C0F701B5
:101E2000808198260F5F00938601CECF40E068E066
:101E3000CE01019673DF082F182F012E1295102561
:101E4000012E169516951025CE0101964CDF1F5FC9
:101E500011FBCC24C0F8D12C90E0C816D90611F49F
:101E600081E0901280E02496EBE00C942D30A4E009
:101E7000B0E0EDE3FFE00C941330FC011B8287E03F
:101E80008C83CF0104969A8389838081853009F001
:101E900052C02181338187E090E0831B910938E0B3
:101EA000239F800D911D11248039910509F043C0B5
:101EB000109286013FE0C32E30EFD32E19E88091B7
:101EC0008601E82EF12CBB24B394B80E41E068E003
:101ED0008F3078F4CE01019621DFC80ED11CF701B6
:101EE000EE58FE4F1827108314E2180FB0928601A7
:101EF000E6CFCE01019612DF8601080F111DB092C8
:101F00008601F701EE58FE4F8095808341E068E03E
:101F1000CE01019603DF90E0982F8827081B190B4C
:101F200041E068E0CE010196F9DE282F30E081E043
:101F30002017310709F080E02496E9E00C942F3057
:101F4000A4E0B0E0E6EAFFE00C9417301B8227E043
:101F50002C839C012C5F3F4F3A832983FC01218114
:101F60002430A1F58381813089F51092860180911A
:101F70008601082F10E0FF24F394F80E41E084302E
:101F800098F4811106C067E0CE010196C7DE806833
:101F900004C068E0CE010196C1DEF801EE58FE4FA4
:101FA0008083F0928601E3CF67E0CE010196B6DE32
:101FB000F801EE58FE4F880F8083F09286019091D1
:101FC000720192959F7081E09A3009F080E024962A
:101FD000E5E00C943330CF93DF93FC0181818330B3
:101FE000C1F483818730A9F48081883091F490E036
:101FF000292F30E0D901AE58BE4FEF01C20FD31FD9
:102000008C818C939F5F933099F79093860181E048
:1020100001C080E0DF91CF910895FC019081809113
:10202000A403993611F0933751F4982F937091309F
:1020300011F4826006C080FF07C08B7F03C080FD63
:1020400003C084608093A4030895A1E0B0E0EBE2B4
:10205000F0E10C9410301982809156018823B9F177
:102060008091A50387FF17C084E30E94690380580D
:10207000803458F0803C58F490E08055910923E07A
:10208000959587952A95E1F703C080E001C08FE020
:102090008F590E9435078091A50383FF16C082E700
:1020A0000E9435078091A50384FF04C080915701E9
:1020B0000E94350786E60E9435078091A50384FFBC
:1020C00004C0809156010E943507109256018091FC
:1020D0008701882309F464C2769A009188012CE173
:1020E000029F8001112406571E4F8981811106C06D
:1020F000C80171DF882311F083E789838981811109
:1021000042C0C801B4DE882311F083E58983898148
:10211000811139C066E4C80151DC8823A1F1F09037
:102120008601FA94F09286014F2D62E771E086E015
:10213000A2DDEF2DF0E0EE58FE4FE0808E1105C0DD
:1021400093E09F1510F486E41BC0282F30E02F5F2A
:102150003F4F4E2D50E02417350739F4A3E0AF155B
:1021600020F496E4998380830EC04F2D62E771E0DE
:102170008CE081DDE81206C0B3E0BF1518F484E5F9
:10218000898301C01982898181111FC065E4C8015A
:1021900015DC882389F08091860181508093860127
:1021A000893051F469E082E791E06FDD90917B0125
:1021B000891302C085E489838981811106C0C80121
:1021C000E2DD882311F088E489838981811142C08E
:1021D000C801B6DE882311F084E7898389818111E3
:1021E00039C0F801438D60915701C8014A96E1DC7E
:1021F000682FC801B8DC6BE4C801E0DB8823C1F0BC
:10220000E0918601FF24FA94FE0EF09286016F2D74
:1022100082E791E046DDEF2DF0E090917101E91B3E
:10222000F109EE58FE4F9081891302C08BE4898337
:10223000898181110FC0D80113968C911397873033
:1022400021F08F5F13968C9308C0F801138281816F
:1022500081508183898181112DC0D80111968C9183
:102260001197843039F513968C91843019F54EE12D
:102270006CE3C80148969DDC8823E1F04EE1609153
:102280005701C8014A9695DC682FC8016CDC80E0D4
:10229000282F30E0F901EE58FE4FD801A20FB31FEE
:1022A00014969C9190838F5F853091F7809386017F
:1022B00082E589836981662309F4DBC04091A50327
:1022C00040FFD7C08091A4038E7F8B7F8093A403AF
:1022D000942F927041FD64C05091700170918601FD
:1022E00057133EC080E08517C0F4282F30E0E1E0AE
:1022F000E80FD901A45ABE4F2E583E4FFC91D90188
:102300002C91F21741F0809370012091A4032D7F4E
:102310002093A40304C08E2FE6CF80937001851311
:102320001FC0C0909E03D0909F03E090A003F09048
:10233000A1038090580190905901A0905A01B0904B
:102340005B01C818D908EA08FB08B6E2CB16D1042D
:10235000E104F10428F48091A40381608093A40334
:10236000971760F4292F30E0F901E45AFE4FD901A4
:10237000AE58BE4F8C9180839F5FF2CF90937001D7
:1023800080919E0390919F03A091A003B091A1031F
:102390008093580190935901A0935A01B0935B0127
:1023A0006435E9F446FD1BC0809186018530B8F0A4
:1023B000809174018B3471F0893661F09DEA980F39
:1023C000923040F08D57823028F0809175018077EF
:1023D000803729F48091A40381608093A403B8011D
:1023E000CE0101961ADE8981843569F49091340416
:1023F000992349F09091E904911105C09091A403AB
:102400009B7F9093A4039091A40392FF32C00E94FB
:10241000350780917101882329F0809186018150D0
:1024200080938601F12CE0918601FE1648F4EF2D91
:10243000F0E0EE58FE4F80810E94F807F394F3CF4E
:1024400080917101882351F0F0E0EE58FE4F8081B9
:102450008F7040E361E090E00E94BC078091A5038B
:1024600085FF05C084E30E9469030E94F8070E946B
:1024700081078091A50382FF7AC080E70E9435071B
:10248000F801808140E262E090E00E948507D80177
:1024900058968C9140E265E0B0E18B9FC001112419
:1024A0000E948507F801818D40E265E0F0E18F9F91
:1024B000C00111240E948507D8015A968C9140E2F0
:1024C00065E0B0E18B9FC00111240E948507F801EF
:1024D000838D40E265E0F0E18F9FC00111240E94EE
:1024E0008507D80112968C9140E263E090E00E944B
:1024F0008507F801818140E263E090E00E94850752
:10250000D80113969C9140E262E027E030E0F901A7
:10251000E91BF109CF010E94850780E20E9435077F
:102520008091A50385FF08C084E30E9469030E948F
:10253000F80780E20E943507D80113968C91139713
:10254000873031F011968C9111978F5F11968C9393
:10255000F12CF8018181F81640F4F801EF0DF11D1E
:1025600084810E94F807F394F4CF0E948107D80178
:102570001C9280918701815080938701809188010E
:102580008F5F843019F08093880102C01092880117
:1025900076988981843521F482E791E00E946F2A40
:1025A0002196ECE00C942C301F920F920FB60F92F4
:1025B00011242F933F934F935F936F937F938F9348
:1025C0009F93AF93BF93EF93FF9310926F0080910F
:1025D000A50383FF03C08EE20E9435078091890125
:1025E0009CE1899FF0011124E657FE4F90819330C2
:1025F00018F09181923010F4A5DA18C090918701FB
:10260000933049F48091A50382FFF6CF8EE792E0E4
:102610000E947407F1CF9F5F909387018F5F843092
:1026200019F08093890102C010928901FF91EF9106
:10263000BF91AF919F918F917F916F915F914F91DA
:102640003F912F910F900FBE0F901F9018959BED0B
:10265000980F973150F496EF960F9D3130F491E03A
:10266000681708F090E0892F089580E008951F9280
:102670000F920FB60F921124FF920F931F932F9377
:102680003F934F935F936F937F938F939F93AF93FA
:10269000BF93CF93DF93EF93FF9380912C0482300D
:1026A00021F483E080932C0459C10091840010919F
:1026B0008500E4E016950795EA95E1F7C091890158
:1026C0008CE1C89FE0011124C657DE4F8881843019
:1026D00031F40E3208F442C10F3448F0B5C08530F1
:1026E00031F4073108F43AC1083208F0ADC04A9914
:1026F0000DC08450823038F461E0CE0134DA10929B
:102700008500109284000093570128C190915701D1
:10271000091B009356011092850010928400888155
:10272000883071F42A8121110BC021E02A83988F0F
:102730009A8F098F0B3B10F4000F01C006950B8F89
:102740008450823020F460E0CE010DDA07C182E0CF
:1027500086BB0881011111C090915701953608F090
:10276000FDC080915601853608F0F8C0988F898F9A
:1027700081E08A8382E08883F1C0109156010230A3
:1027800009F072C000915701412F602FCE01489689
:1027900010DA2A818823F9F0888D90E0AC01440F8B
:1027A000551F840F951F800F911D959587959595C1
:1027B0008795888F898D90E0AC01440F551F840F59
:1027C000951F810F911D9595879595958795898F73
:1027D0002F5F2A83C3C0243008F444C080EA9FE0FE
:1027E00090938900809388008A818C3050F0288DE6
:1027F000898D90E0820F911D8536910524F084E04B
:1028000026C08A3080F0288D898D90E0820F911D3E
:1028100085974CF485E0888388EE93E09093890057
:102820008093880015C08091A703882379F0612FD9
:10283000802F0DDF882351F0688D898D08DF882374
:1028400029F081E080932C047DD988C083E08883BF
:102850000A8F1B8F198287E08B831C8282E0809312
:102860006F007CC0188278CF083029F581E9810F8C
:102870008D3178F460E0CE0176D9888D90E09C01AE
:10288000220F331F820F931F20915701820F911D3A
:102890004EC0173E08F462C061E0CE0164D98A8D53
:1028A00090E09C01220F331F820F931F209157014C
:1028B000820F911D15C0F0905701412F6F2DCE0151
:1028C0004A9677D9882301F161E0CE014CD98A8DEF
:1028D00090E09C01220F331F820F931F8F0D911DDB
:1028E00095958795959587958A8F8B8D90E09C011E
:1028F000220F331F820F931F810F911D959587958E
:10290000959587958B8F2AC0412F6F2DCE014896C4
:1029100050D9882301F160E0CE0125D9888D90E05F
:102920009C01220F331F820F931F8F0D911D9595D0
:10293000879595958795888F898D90E09C01220FCA
:10294000331F820F931F810F911D95958795959544
:102950008795898F03C0073009F076CFFF91EF91FB
:10296000DF91CF91BF91AF919F918F917F916F91A7
:102970005F914F913F912F911F910F91FF900F9079
:102980000FBE0F901F901895E09189018CE1E89F90
:10299000F0011124E657FE4F8081811107C081E0CC
:1029A000909118059F3F19F480E0089581E0089503
:1029B00080E690E00E945E088093A70381E690E0A5
:1029C0000E945E0880933404882321F081E2809382
:1029D000A50332D910922D0408955B9A0C94C30676
:1029E0005B980C94C306A7E0B0E0E9EFF4E10C9427
:1029F00014303091AB0390E0E92FF0E0E35DFB4F42
:102A00002081222309F46FC0231711F09F5FF4CFB8
:102A100095E79983882391F0BE016E5F7F4F809187
:102A200034040E944608BE016C5F7F4F8091A7036B
:102A30000E94460885E58E8316E001C011E00E94E1
:102A40005D040E94D90306E080E891E0C6DF80E0E3
:102A500093E0C6DF0150C1F780E093E0BEDF80E87D
:102A600091E0BEDF80E891E0B8DF5B9887E390E01B
:102A70000E947E0383E00E94C80628988FE70E9488
:102A8000FA028091AA03810F0E94FA02CE010196F8
:102A90006C017C01F70181917F010E94FA028E2D69
:102AA0008C198117B8F38091AA03882339F088EA3A
:102AB00093E00E94A0090E94FA02F5CF289A0E9492
:102AC000D90388EA93E00E94850915E18AE30E9410
:102AD00069038F7731F0115021F081E00E94C80620
:102AE000F5CFAAD807C0992309F492CF88EA93E0DA
:102AF0000E9485092796E8E00C943030CF93DF934D
:102B0000EC01898181110BC08091A7030E94F80715
:102B1000809134040E94F8070E9481073EC08636E7
:102B200081F42296ADE2B4E0E0E08991882321F0BF
:102B30008D93EF5FE530C9F7F0E0E35DFB4F108266
:102B40002CC08936D9F441E067EA73E0CE010296E1
:102B50000E94FC076091A70380E690E00E9459085C
:102B600041E064E374E0CE0104960E94FC076091AA
:102B7000340481E690E00E9459080FC088EA93E08F
:102B80000E94850921966991662329F088EA93E0DD
:102B90000E948A09F8CF80E026DFDF91CF91089567
:102BA000A1E0B0E0E6EDF5E10C94143080912C0446
:102BB000882309F485C0C0909E03D0909F03E090C5
:102BC000A003F090A103833009F060C08FE30E945E
:102BD0006903182F8630C8F08CEA95E00E948509B9
:102BE00028988FEF0E94FA0280E00E94FA02082FD4
:102BF000115049F080E00E94FA02682F8CEA95E0BB
:102C00000E948A09F5CF289A01C000E015D81092D9
:102C10002C04053709F054C041E0BE016F5F7F4FBF
:102C20008FEA95E00E94FC07019759F59981809100
:102C3000A703981326C08091B305853571F4809160
:102C4000AE05882339F08CEA95E00E94A0090E9425
:102C50003507F5CF0E94810733C08091AE058450BF
:102C60008093AE0584E08093AD056AE08CEA95E040
:102C70000E948A09E0919A03F0919B0388E00995EC
:102C80001FC08CEA95E00E9485091AC0823059F471
:102C90008091A6039C2D981B983090F00E941C0EEA
:102CA00010922C040DC0813059F487E390E00E940B
:102CB0007E030E94EB0382E080932C04C092A60363
:102CC0002196E8E00C9430305FDE882319F083E031
:102CD000809333048091330481508093330488239C
:102CE00021F083E080932B04089581E07CCE0F9344
:102CF0001F93CF93DF93EA98209A289A8EE190E071
:102D00000E94C30628988EE190E00E94C306289A8C
:102D10008DE290E00E94C30680E30E947A0384E67D
:102D200090E00E94C306C5EAD2E0FE0131966491AC
:102D3000FE0184910E9470032296F2E0C73DDF07F6
:102D4000A1F78091FB01811107C083E30E947A0300
:102D500084E00E94C80610C0CFE8D2E005EA12E085
:102D6000FE0131966491FE0184910E9470032296C7
:102D70000C171D07A9F7E9CF84E30E947A0385E3C6
:102D80000E9469038D30C1F7DF91CF911F910F91A0
:102D90000895A2E3B0E0EFECF6E10C9418308091D6
:102DA000FA01882309F4A1C04A9B8AC08FE30E94DC
:102DB00069038F778983823368F08AE30E947A03FC
:102DC00086E30E947A038DE30E947A0384E30E94E3
:102DD0007A038BC028988FEF0E94FA0210E0898155
:102DE000181760F480E00E94FA02E2E0F0E0EC0FD5
:102DF000FD1FE10FF11D80831F5FF1CF80E00E9476
:102E0000FA02082F80E00E94FA02289A84E30E94C6
:102E10007A0385E30E9469038D30C1F78A8196E7C2
:102E200098279A8392E02981E92FF0E0921768F4BD
:102E300021E030E02C0F3D1FE20FF31F2081845270
:102E4000822780839F5F822FEECF81E090E08C0FFE
:102E50009D1FE80FF91F90818B81892780838091C6
:102E6000A50384FF12C081E60E94350710E0898126
:102E7000811730F1E1E0F0E0EC0FFD1FE10FF11DF3
:102E800080810E9435071F5FF2CF81E40E943507E1
:102E900010E08981811758F0E1E0F0E0EC0FFD1FB0
:102EA000E10FF11D80810E94F8071F5FF2CF809132
:102EB000A50385FF03C0802F0E94F8070E948107A9
:102EC00085E30E946903813029F0813161F48AE34E
:102ED0000E947A0386E30E947A038DE30E947A03BC
:102EE00084E30E947A030E94A404E296E4E00C9436
:102EF0003430AAE3B0E0EFE7F7E10C94103041E39F
:102F00008E010F5F1F4FB80101960E94FC077C01E4
:102F10009C01332721503109898190E02817390716
:102F200009F0A3C08091FA01811104C0E0DE83E0C2
:102F30000E94C806DB809A8186E789278A8322E07F
:102F40003981822F90E0F801E80FF91F231750F420
:102F5000DE01A80FB91F8C9184529081892780834C
:102F60002F5FEECF80818D258083CE01C7960E9492
:102F7000C70585E30E947A0385E30E9469038331D4
:102F800081F1CE01C3960E94C7054BA95CA96DA92A
:102F90007EA98FA998ADA9ADBAAD84179507A607EC
:102FA000B70760F44A015B01881A990AAA0ABB0AAA
:102FB0002DEB82169104A104B10470F4481759074F
:102FC0006A077B0770F484549F4FAF4FBF4F84173D
:102FD0009507A607B70728F485E892E00E947407D2
:102FE00027C085E30E946903833119F6D4FE08C027
:102FF00088E70E94C80688E70E94C80688E701C0E3
:103000008AE00E94C80628988FE70E94FA026801A9
:103010008C2D801B8E1530F4F60181916F010E947A
:10302000FA02F6CF289A85E30E9469038331D9F327
:1030300085E30E946903863149F48BE30E947A0399
:1030400086E30E947A038DE30E947A038091FA015D
:10305000882349F084E30E947A0385E30E94690390
:103060008D30C1F702C00E941C0EEA96ECE00C9471
:103070002C30FC019181923731F0923559F481E086
:103080008093FB0102C01092FB0131DE81E080934E
:10309000FA010895933719F4CF0101962ACF1092BF
:1030A000FA010895282F2A7A30E035952795982F30
:1030B000957529272535310559F4982F96709695E1
:1030C0008076869586958695892B95E08927089543
:1030D0008FEF08951092FC0182E08093FD018091B2
:1030E0000102882379F08091FD01833021F48091E1
:1030F000FC01823020F48091FD01843011F4769A35
:1031000001C0769880E98093C9000E94EB03EA9899
:1031100008951092FC0184E08093FD0180910102EA
:10312000882379F08091FD01833021F48091FC01A6
:10313000823020F48091FD01843011F4769A01C030
:1031400076980E94D903EA9888E28093C90008958E
:103150001092FC0181E08093FD018091010288239F
:1031600079F08091FD01833021F48091FC0182305F
:1031700020F48091FD01843011F4769A01C0769894
:103180001092C90086E30E947A03EA9808950F938B
:103190001F93CF938091FD01833009F03FC0809150
:1031A000FC018430D9F580910102882381F080915F
:1031B0000202882361F08DE391E00E94690780910B
:1031C00002020E9435078AE30E94350704C080E4AA
:1031D00091E00E946907C0E080910502C817D8F409
:1031E0000C2F10E00A5F1D4FF801808182958F70CF
:1031F0008A3010F4805D01C0895C0E943507F801B7
:1032000080818F708A3010F4805D01C0895C0E94DB
:103210003507CF5FE1CF0E9481075CDFCF911F911F
:103220000F910895539A1092CD008CE08093CC00BA
:103230001092C8001092C90086E08093CA000895D9
:10324000CF93DF93209A289A8EE190E00E94C306E4
:1032500028988EE190E00E94C306289A8DE290E0C3
:103260000E94C30680E30E947A0384E690E00E94F5
:10327000C306C7EDD2E0FE0131966491FE01849150
:103280000E9470032296F3E0C930DF07A1F783E3C1
:103290000E947A0384E00E94C806C4DF1092FC01F9
:1032A00081E08093FD0180910102882379F0809173
:1032B000FD01833021F48091FC01823020F4809163
:1032C000FD01843011F4769A01C07698DF91CF9198
:1032D0000895CF93DF93EC018981843649F018F487
:1032E0008823C9F153C08C3639F0833791F04EC032
:1032F00081E08093010202C0109201028091FD01E1
:10330000811101C09DDF8091FD018130F1F4E2DE89
:103310001CC08091FD01811101C092DF8091FD01EF
:10332000813021F08091FD01823091F48091FD0186
:10333000823009F40DDF40E466E072E0CE010296CF
:103340000E94FC0780930402E4DE83E491E020C045
:1033500086E491E01DC010920102FADE1092FC0199
:103360001092FD0180910102882379F38091FD0183
:10337000833021F48091FC01823020F48091FD01A2
:10338000843011F4769AE1CF7698DFCF89E491E02A
:103390000E9469070E948107DF91CF9108951F92D3
:1033A0000F920FB60F9211242F933F934F935F9379
:1033B0006F937F938F939F93AF93BF93EF93FF93FD
:1033C0008091FD01843009F0D8C08091FC018530E6
:1033D00039F118F4882341F0D0C0863009F450C088
:1033E000873009F4B5C0C9C01092050285E080930A
:1033F000FC018091FD018093FD01809101028823F1
:1034000079F08091FD01833021F48091FC018230BC
:1034100020F48091FD01843011F4769A01C07698F1
:10342000E091050281E08E0F80930502F0E0E45FF9
:10343000FE4F80818093CE00809105028A3008F48F
:103440009DC086E08093FC018091FD018093FD0189
:1034500080910102882379F08091FD01833021F46D
:103460008091FC01823020F48091FD01843011F4C0
:10347000769A01C0769810920302109200026DC0F5
:103480008091000281112BC090910502809104026D
:10349000981790F4E0910502F0E0EA5FFD4F90810B
:1034A00080910302890F80930302E0910502F0E00E
:1034B000EA5FFD4FE08103C0E0910302E195AE2F8A
:1034C000A295AF70B0E0AA5EBE4F8C918093FE01D2
:1034D000EF70F0E0EA5EFE4F80818093FF01E091A3
:1034E000000281E08E0F80930002F0E0E250FE4F78
:1034F00080818093CE0080910002823009F03EC02E
:10350000809105028F5F80930502109200029091D6
:10351000050280910402891788F587E08093FC01F9
:103520008091FD018093FD01809101028823A9F023
:103530008091FD01833021F48091FC01823020F4E0
:103540008091FD01843011F4769A07C0769805C009
:1035500080910502843020F0BDDD109205020EC07E
:10356000E091050281E08E0F80930502F0E0E85FB4
:10357000FE4F80818093CE0001C0ACDDFF91EF91C2
:10358000BF91AF919F918F917F916F915F914F917B
:103590003F912F910F900FBE0F901F9018951F9283
:1035A0000F920FB60F9211242F933F934F935F9377
:1035B0006F937F938F939F93AF93BF93CF93EF932B
:1035C000FF939091C8008091CE002091FD012230A0
:1035D00051F02091FD01233009F033C12091FC010D
:1035E000243009F42EC1292F2871F9F08091FD01B2
:1035F000833009F026C12091FC0180910102223024
:1036000060F094FF05C0882309F4FAC086E4DFC0A7
:10361000882309F4F5C08FE4DAC01092FC0192E02F
:103620009093FD018111DCC00CC19091FC0191309F
:1036300061F120F0923009F478C003C196E09093D4
:103640000502E0910502F0E0E45FFE4F90818913EE
:10365000F8C081E08093FC0183E08093FD018091BC
:103660000102882379F08091FD01833021F480915B
:10367000FC01823020F48091FD01843011F4769AAF
:1036800001C0769810920202D7C0909105029A303C
:1036900030F5E0910502F0E0E45FFE4F9081891380
:1036A00006C0809105028F5F8093050218C01092BA
:1036B000FC0182E08093FD0180910102882379F072
:1036C0008091FD01833021F48091FC01823020F44F
:1036D0008091FD01843011F4769A01C07698809132
:1036E00005028A3009F0ADC082E08093FC01809130
:1036F000FD018093FD0180910102882379F0809182
:10370000FD01833021F48091FC01823020F480910E
:10371000FD01843011F4769A01C07698109205026A
:1037200010920002109203028CC0209105022034F6
:1037300058F080910102882311F08CE448C0109267
:10374000FC019093FD017DC0E091000291E09E0F8D
:1037500090930002F0E0E250FE4F808390910801C8
:1037600089131EC08091050290910102823020F0E1
:1037700080910302882329F0992309F441C083E44E
:1037800026C08091050281508093050284E08093D9
:10379000FC018091FD018093FD01911121C051C078
:1037A00080910002823009F04CC01092000280919A
:1037B000FE0178DCC82F8091FF0174DCCF3F11F04F
:1037C0008F3F21F5809101028823D1F08DE4809311
:1037D000020284E08093FC018091FD018093FD0151
:1037E0008091FD01833021F48091FC01823020F42E
:1037F0008091FD01843011F4769A23C0769821C01F
:103800001092FC0182E08093FD011BC0E091050253
:10381000F0E090E1C99F90011124282BEA5FFD4F51
:103820002083E0910502F0E0EA5FFD4F90818091F6
:103830000302890F80930302809105028F5F8093BA
:103840000502FF91EF91CF91BF91AF919F918F9121
:103850007F916F915F914F913F912F910F900FBE8C
:103860000F901F901895CF93DF93EA98209A289A8B
:103870008EE190E00E94C30628988EE190E00E94BD
:10388000C306289A8DE290E00E94C30680E30E945E
:103890007A0384E690E00E94C306C2E2D3E0FE0110
:1038A0008491813440F083E30E947A0384E00E9493
:1038B000C806CFEF0DC0FE0131966491FE018491E0
:1038C0000E9470032296F3E0CE35DF0741F7EBCF7D
:1038D00084E30E947A038AE090E00E94C306C1500C
:1038E000B9F781E080934602DF91CF9108958F92DE
:1038F0009F92AF92BF92EF92FF920F931F93CF933D
:10390000DF937C01EB01FC0110811F5F209719F40C
:1039100020E030E002C024E630E0F8E01F9FC00164
:1039200011246AE070E00E94F12F260F371F490131
:10393000032E000CAA08BB088091A2039091A30358
:10394000AC0160E070E0481559056A057B0528F474
:1039500082E193E00E947407D3C0821B930B909383
:10396000A3038093A20380914602811101C07BDFF3
:1039700085E30E9469038D3071F08AE50E94350766
:1039800085E40E94350782E50E94350782E50E94A2
:10399000350781E34BC08091470290914802A09186
:1039A0004902B0914A02892B8A2B8B2B49F50E9440
:1039B000D90385E30E946903833109F442C08AE593
:1039C0000E94350785E40E94350782E50E9435078D
:1039D00082E50E94350782E329C040919E03509101
:1039E0009F036091A0037091A1030196A11DB11DD9
:1039F00084179507A607B707D1F681E00E94C8068D
:103A000040919E0350919F036091A0037091A10388
:103A10008091470290914802A0914902B0914A02D8
:103A2000481759076A077B07C1F6E7CF0E94350799
:103A300085E30E9469030E94F8070E94810713DF53
:103A40005FC0CD2B41F428988FE70E94FA020E2D1B
:103A5000C02FDF2D08C0CAE0D0E084E60E94C8066F
:103A60002197D9F7F0CF8C2F801B811720F48991F3
:103A70000E94FA02F8CF289AC8EC85E30E946903F5
:103A80008D30E9F485E30E9469038D3019F18AE5F0
:103A90000E94350785E40E94350782E50E943507BC
:103AA00082E50E94350783E30E94350785E30E9483
:103AB00069030E94F8070E948107D5DE0BC085E3E9
:103AC0000E9469038331F1F681E00E94C806C1506B
:103AD000A1F6D8CF80914602811102C00E941C0E2F
:103AE00080919E0390919F03A091A003B091A103A8
:103AF0008093470290934802A0934902B0934A02F0
:103B0000DF91CF911F910F91FF90EF90BF90AF90F9
:103B10009F908F900895ACE0B0E0E1E9FDE10C9456
:103B20001930FC018BE0898381818A831B8282E0CA
:103B30008C8387818D8380858E8381858F8384812B
:103B400088878581898786818A871B861C8684E190
:103B50000E94C80660E070E0CE010196C8DE8AE5EA
:103B60000E94350710E0812F90E0298130E028176E
:103B700039075CF0E1E0F0E0EC0FFD1FE80FF91F02
:103B800080810E94F8071F5FEECF8091A50385FF1B
:103B900003C080E00E94F8070E9481072C96E3E0B2
:103BA0000C943530CF93DF93EC0190914E0291113C
:103BB00008C080914F02811104C080915002882377
:103BC000A9F08B81803319F08F7E803479F48F8156
:103BD00098130CC0988580914F02981307C099855F
:103BE00080915002981302C0CE0195DF80914B0264
:103BF000811108C090914C02911104C090914D0226
:103C00009923A9F098819B3091F49B81903479F4A9
:103C10009F8189130CC0988580914C02981307C02E
:103C2000998580914D02981302C0CE0174DFDF9117
:103C3000CF910895AEE1B0E0E0E2FEE10C941830DF
:103C400080914602882309F469C04A9B59C08FE3DA
:103C50000E9469038F778E3108F08DE1898328985F
:103C60008FEF0E94FA0210E08981181760F480E05B
:103C70000E94FA02E2E0F0E0EC0FFD1FE10FF11DFF
:103C800080831F5FF1CF80E00E94FA02082F80E05E
:103C90000E94FA02289ACE01019684DF8091A50342
:103CA00084FF12C08AE70E94350710E089818117DE
:103CB000A8F1E1E0F0E0EC0FFD1FE10FF11D8081C4
:103CC0000E9435071F5FF2CF8AE50E94350710E09A
:103CD0008981811758F0E1E0F0E0EC0FFD1FE10F62
:103CE000F11D80810E94F8071F5FF2CF8091A5032C
:103CF00085FF03C0802F0E94F8070E9481070EC035
:103D000085E30E946903813149F48AE30E947A03C2
:103D100086E30E947A0384E30E947A036E96E4E0CD
:103D20000C943430AEE1B0E0E8E9FEE10C941830D8
:103D30008C01FC018181823711F495DD36C0833717
:103D400011F0863601F54DE1BE016F5F7F4FC8016E
:103D500002960E94FC0799270197298130E082177B
:103D6000930729F089E093E00E9474071EC061E088
:103D700070E0F8018181833711F060E070E0CE01DE
:103D80000196B5DD12C0813621F443E06EE472E0A5
:103D900005C0873741F443E06BE472E0C801029646
:103DA0000E94FC0702C0109246026E96E4E00C945A
:103DB00034300E94EB03EA9808950F931F93CF933A
:103DC000DF93209A289A8EE190E00E94C3062898FB
:103DD0008EE190E00E94C306289A8DE290E00E9456
:103DE000C30680E30E947A0384E690E00E94C30643
:103DF0008091DE048933D9F4C2ECD3E004EF13E000
:103E0000FE0131966491FE0184910E947003229616
:103E10000C171D07A9F783E30E947A0384E00E9430
:103E2000C806C7DFDF91CF911F910F9108958433AA
:103E300079F4C0E9D3E0FE0131966491FE018491EA
:103E40000E9470032296F3E0C23CDF07A1F7E3CFA4
:103E5000813309F7CEE5D3E0FE0131966491FE018E
:103E600084910E9470032296F3E0C039DF07A1F726
:103E7000D2CFFC0190818091E304981317C0918107
:103E80008091E404981312C092818091E504981304
:103E90000DC093818091E604981308C090858091AD
:103EA000E704981729F081E09F3F19F080E008951A
:103EB00081E008959C018FEF662339F06150F9018C
:103EC000E60FF11D90818927F7CF0895DC012FE0DF
:103ED0003DE170E0AD01481B590B461757070CF543
:103EE0004D91E32FFF27E427AF01529542954F7084
:103EF00045275F704527E427F527322F2227A901A0
:103F00004E275F279F01322F22273295307F2427AB
:103F1000352745E0EE0FFF1F4A95E1F72E273F2793
:103F2000D9CFC9010895A0E0B0E0E9E9FFE10C9420
:103F300014308C01C62F769A8091DE04893339F4CF
:103F400064E182E10E9470036C2F660F6D5E86E073
:103F50000E9470030E94D90328988FE70E94FA02FA
:103F60008091DE04893331F07801C8018C0F911DF6
:103F7000EC0150C0DFE086E60E94FA02D150D9F78A
:103F80008AEA0E94FA0285E50E94FA027801680135
:103F9000CC0ED11CEC14FD04B1F1F701C1917F01ED
:103FA000C7FD02C090E401C090E8C6FD02C080E1F8
:103FB00001C080E2890FC5FD02C094E001C098E015
:103FC000890FC4FD02C091E001C092E0890F0E94F8
:103FD000FA02C3FD02C090E401C090E8C2FD02C035
:103FE00080E101C080E2890FC1FD02C094E001C000
:103FF00098E0890FC0FD02C091E001C092E0890FF6
:104000000E94FA02C7CF80E00E94FA0280E00E947C
:10401000FA020AC0CE15DF0539F0F70181917F0160
:1040200080950E94FA02F6CF289A85E30E946903E0
:104030008331D9F36FEF86E00E9470038091DE0434
:10404000893321F46EE182E10E947003B2DE76983A
:10405000F801858186FF2CC080919E0390919F037B
:10406000A091A003B091A1030696A11DB11D80935C
:10407000DF049093E004A093E104B093E204809104
:1040800051028F5F80935102823060F08AE70E9474
:10409000350782E70E943507809151020E94F80798
:1040A0000E94810780915102833010F010925102DA
:1040B000CDB7DEB7E8E00C943030A8EAB0E0E3E634
:1040C000F0E20C94103080915202882309F421C14F
:1040D000809151028823D9F040919E0350919F0313
:1040E0006091A0037091A1038091DF049091E0049E
:1040F000A091E104B091E20484179507A607B707E1
:1041000030F46091DD0485E394E00DDF02C14A9B49
:1041100000C1769A28988FEF0E94FA028E010F5FF5
:104120001F4F6E0189E0C80ED11C780180E00E940B
:10413000FA02F70180839091DE04993311F08095A3
:104140008083FFEFEF1AFF0AEC14FD0479F7289A39
:10415000F88487EF8F0D803A10F02FDEDAC06F2DD4
:1041600086E00E9470038091DE04813331F0843355
:1041700041F47CEDA72EB12C08C06AE5A62EB12C27
:1041800004C058E9A52E53E0B52E30EAC32E48E00E
:10419000E42E8F2C912CC5010E94C3068BE30E9454
:1041A0006903D82E882329F190E08E0D911D881681
:1041B00099069CF228988FEF0E94FA02DE0CED140B
:1041C00071F080E00E94FA029091DE04993309F0C8
:1041D0008095F801EE0DF11D8083E394F0CF289ACD
:1041E000EF1438F08091DE04CF2CD12C813301F50F
:1041F00004C0CA94C110CFCFF5CFEFEFFFEFEC0FA3
:10420000FD1FEC0DFD1D808190E0982F8827FE0199
:10421000EC0DFD1D20816C01C20ED11C6EEF6F0DE7
:10422000C80154DEEE24E394C816D90661F40CC02C
:104230006FEF6F0DC8013EDEFE01EC0DFD1DEE249B
:10424000E39490819813E12C80915202823791F58A
:10425000C8010FDE882391F0EE2089F08AE70E94E2
:1042600035076801F60181916F010E94F8078C2DD6
:10427000801B8F15B8F30E94810701C0E12C80914B
:104280005202823781F4EE2071F08E81982F937064
:10429000933029F49091510291111092510286FFAE
:1042A00002C087FF0AC06FEF86E00E94700381DDC5
:1042B00076982FC0EE20B9F3D1CF8AE00E94C806CD
:1042C0008D8189878091E7048D8383E08E8380913F
:1042D000DE04813349F48BE0888769E0C801F6DDAC
:1042E0009A878B876BE007C08AE0888769E0C801FE
:1042F000E1DD8A876AE0C80116DE8AE70E94350799
:1043000081E60E94350789850E94F8070E9481078F
:10431000CFCFC855DF4FECE00C942C30FC0121814D
:10432000223711F02D3651F4FC018281811101C038
:1043300084E38093DE04209352023FCD233771F44F
:104340001092510248EA65E374E002960E94FC076D
:104350008093DD04682F85E394E0E5CD293671F57F
:10436000FC012281222331F045E063EE74E00296E5
:104370000C94FC07809152020E9435078091DE0464
:104380000E94350780E20E9435078091E3040E9475
:10439000F8078091E4040E94F8078091E5040E94E8
:1043A000F8078091E6040E94F80780E20E94350732
:1043B0008091E7040E94F8070C9481071092520242
:1043C0000895CF93DF93EA98209A289A8EE190E09F
:1043D0000E94C30628988EE190E00E94C306289AA6
:1043E0008DE290E00E94C30680E30E947A0384E697
:1043F00090E00E94C306289880E40E94FA02C4EF6D
:10440000D3E0FE0184910E94FA022196F4E0C130CB
:10441000DF07B9F7809126010E94FA0280912701F7
:104420000E94FA02809128010E94FA02C0E0D0E0C6
:10443000FE01EC5FFB4F84910E94FA022196C93184
:10444000D105B1F7289A28988EE70E94FA028BE2EC
:1044500090E0EC0121960E945E080E94FA02CE01D3
:10446000E397B9F7289A83E30E947A0381E00E94D8
:10447000C80681E080939C03DF91CF910895A0E06E
:10448000B0E0E5E4F2E20C941230EC01898184376B
:1044900069F46DE271E0CE0102960E942C0840E2C0
:1044A00060E080912D0190912E0112C0833709F0B8
:1044B00098C18A81823789F469E271E0CE0103965E
:1044C0000E942C0840E260E08091290190912A012D
:1044D0000E9485070E948107F9C1769A8091550252
:1044E000811116C08091FA01882329F081E0809320
:1044F00054021092FA0180914602882329F081E04B
:1045000080935302109246025CDF83E00E94C8064B
:1045100086E30E947A038AE30E947A038BE30E9477
:104520007A030E94D903FE0101900020E9F7EC1BF9
:10453000FEEFFF2EFE0E10E0AAE0BA2EB5E0EB2E45
:1045400088E2A82E2091290130912A01812F012E85
:10455000000C990B8217930708F005C131E2F312A2
:1045600014C05B9A80912D0190912E010E94C30688
:104570005B9880912B0190912C01FC01BE9EC001A3
:10458000BF9E900D11240E94C3066E01F2E0CF0E73
:10459000D11C01E00F150CF0BCC0F60181916F0138
:1045A000803309F048C0F1E25B9AFF1220C080918D
:1045B0002B0190912C010E94C3065B9880912B01E6
:1045C00090912C010E94C3065B9A80912B019091DF
:1045D0002C010E94C3065B9880912B0190912C01C5
:1045E0009C01E29EC001E39E900D11248EC080913B
:1045F0002D0190912E010E94C3065B9880912D01A0
:1046000090912E019C01220F331F820F931F0E9455
:10461000C3065B9A80912D0190912E010E94C306E2
:104620005B9880912D0190912E019C01220F331FE8
:10463000820F931F6AC0813339F531E25B9AF3121E
:1046400012C080912B0190912C010E94C3065B98AF
:1046500080912B0190912C01FC01EE9EC001EF9EF8
:10466000900D112420C080912D0190912E019C016C
:10467000220F331F820F931F0E94C3065B98809105
:104680002D0190912E012EC0F1E25B9AFF121AC00B
:1046900080912B0190912C010E94C3065B98809120
:1046A0002B0190912C010E94C3065B9A80912B01F3
:1046B00090912C010E94C3065B9880912B019091F0
:1046C0002C0123C080912D0190912E010E94C306E0
:1046D0005B9880912D0190912E019C01220F331F38
:1046E000820F931F0E94C3065B9A80912D019091C7
:1046F0002E019C01220F331F820F931F0E94C306BD
:104700005B9880912D0190912E010E94C3060F5F4E
:1047100041CF21E25B9AF21214C080912B0190915B
:104720002C010E94C3065B9880912B0190912C0173
:10473000FC01AE9EC001AF9E900D11240E94C306E5
:1047400010C080912D0190912E010E94C3065B98AC
:104750000FE180912D0190912E010E94C30601501E
:10476000C1F71F5FEFCE80915502882341F0809101
:10477000A50381110FC086E30E947A0318C08091BF
:104780005402882351F0109254020E94771681E05F
:104790008093FA010E94EB030AC0809153028823A0
:1047A00021F0109253025FD802C00E941C0E76982E
:1047B00089E60E94350783E70E94350711E01F153F
:1047C0000CF088CEFE01E10FF11D17FDFA958181F5
:1047D000803319F0813309F086E40E9435071F5FAA
:1047E000EECF8237B9F48091FA01882329F081E075
:1047F000809354021092FA0180914602882329F096
:1048000081E08093530210924602DBDD81E08093C9
:1048100055025CC0863651F58A81803351F480E1BF
:104820008093260180EB8093270181E78093280104
:1048300007C043E066E271E0CE0102960E94FC07E9
:1048400089E60E94350786E60E9435078AE30E94C2
:104850003507809126010E94F807809127010E9468
:10486000F807809128010E94F80734CE883731F587
:1048700080915402882341F0109254020E947716CE
:1048800081E08093FA0111C080915302882329F0BE
:10489000109253020E94331C0EC082E090E00E94EE
:1048A0007E038091A503882319F00E94EB0303C0C7
:1048B00086E30E947A031092550208C0833631F4D1
:1048C0006DE271E0CE0101960E942C08CDB7DEB7F3
:1048D000EAE00C942E30A1E0B0E0E1E7F4E20C94C1
:1048E0000C307C01FC018181833709F0A4C119825D
:1048F00087E090E00E9441308C0141E0BE016F5F93
:104900007F4FC70102960E94FC078981F8018083CE
:1049100041E0BE016F5F7F4FC70104960E94FC0714
:104920008981807FD82EF801818341E0BE016F5FCD
:104930007F4FC70106960E94FC078981F801828398
:1049400041E0BE016F5F7F4FC70108960E94FC07E0
:104950008981F801838341E0BE016F5F7F4FC7010A
:104960000A960E94FC078981F801868341E0BE0116
:104970006F5F7F4FC7010C960E94FC078981F80189
:10498000858341E0BE016F5F7F4FC7010E960E9495
:10499000FC078981F80184833801F7E06F0E711CF0
:1049A000F80180E09191292F22952F709227892775
:1049B000E615F705B9F78F708D29F801818387E037
:1049C00090E00E9441307C0187E0F801D70101901E
:1049D0000D928A95E1F798012A5F3F4FF801DF01B8
:1049E000319611969C9111978C9189278083E217BB
:1049F000F307A9F7769A80915802811160C08091DF
:104A0000FA01882329F081E0809357021092FA017D
:104A100080914602882329F081E08093560210920B
:104A20004602EA98209A289A8EE190E00E94C306F6
:104A300028988EE190E00E94C306289A8DE290E0CB
:104A40000E94C30680E30E947A0384E690E00E94FD
:104A5000C306289880E40E94FA02EDE1CE2EE4E03D
:104A6000DE2EF6E4AF2EF4E0BF2EF60184910E9414
:104A7000FA02FFEFCF1ADF0AAC14BD04B1F7289A8F
:104A800028988EE70E94FA028BE290E06C012FEFEB
:104A9000C21AD20A0E945E080E94FA02C60183333B
:104AA0009105A1F7289A83E30E947A0381E00E948E
:104AB000C80681E080939C0383E00E94C80686E3D9
:104AC0000E947A038AE30E947A038BE30E947A03AE
:104AD0000E94D9035B9A87EC94E20E94C3065B981C
:104AE00089E50E94C80685E392E00E94C306512C26
:104AF0008091330190E0252D052C000C330B2817F5
:104B000039070CF056C0552019F077E0C72E02C0C7
:104B100062E0C62ED12C5B9A86EF99E00E94C30614
:104B20005B9886EF99E00E94C306D394CD10F3CF33
:104B30005B9A8CEF92E10E94C3065B9880912F01F3
:104B4000909130010E94C3066801F60181906F01C7
:104B500048E0442E50E8A52EB12C912CC4018A21A6
:104B60009B21892B49F45B9A80912F019091300110
:104B70000E94C3065B9808C05B9880912F019091BA
:104B800030010E94C3065B9A80912F019091300101
:104B90000E94C306B694A7944A944110DFCFC6146E
:104BA000D70499F65B9880E090E00E94C306539486
:104BB0009FCF80915802882341F08091A5038111F5
:104BC0000FC086E30E947A0319C0809157028823A0
:104BD00051F0109257020E94771681E08093FA01FB
:104BE0000E94EB030BC080915602882329F010929B
:104BF00056020E94331C02C00E941C0E769889E562
:104C00000E94350783E70E94350767015701F7E0E7
:104C1000AF0EB11CF60181916F010E94F807AC1430
:104C2000BD04C1F70E948107C7010E94D930C801A5
:104C30000E94D9306FC08237A9F463E371E0C701E5
:104C400002960E942C0889E50E94350782E70E949F
:104C500035078AE30E9435078091330140E260E026
:104C600090E02CC0843779F5F7018281803339F4E4
:104C700088ED94E0909332018093310106C061E3A6
:104C800071E0C70102960E942C0880913101909139
:104C90003201969587959093300180932F0189E595
:104CA0000E94350784E70E9435078AE30E94350792
:104CB00040E266E080913101909132010E948507C7
:104CC0000E94810727C0883729F5809157028823E1
:104CD00041F0109257020E94771681E08093FA010A
:104CE00011C080915602882329F0109256020E942A
:104CF000331C0EC082E090E00E947E038091A503E9
:104D0000882319F00E94EB0303C086E30E947A0314
:104D1000109258022196E0E10C942830109203057D
:104D20001092140383E080935E028FEF8093180546
:104D30000895EFE5F2E02081211105C0892BB1F043
:104D400080E090E00895B3E0ED30FB07B8F70097FE
:104D500051F04181DC013C91431305C04281119621
:104D60003C91431751F0E20FF11DE5CF33E0ED30F8
:104D7000F30719F010F0EDE0F3E0CF01089524E01F
:104D8000829FC0011124FC01E75EFA4F80818F3FB2
:104D900091F080935902818180935A02828180939D
:104DA0005B02838180935C0221E04CE064E089E552
:104DB00092E00C94BE0A08958EE093E0BADF00976B
:104DC00099F020915E02FC013081231768F4E20F14
:104DD000F11D80818093100389E780931103818105
:104DE0008093120381E0089580E008950F931F934C
:104DF000CF93DF932091A50326FF16C08C0184E595
:104E00000E943507E8010B5F1F4F89910E94F80748
:104E1000C017D107D1F78091A50385FF03C08AEFA2
:104E20000E94F8070E948107DF91CF911F910F9197
:104E3000089586E30E947A0380911003833511F070
:104E40008BE401C08BE90E94C80621E04CE065E0DC
:104E50008EE093E00E94BE0A0E94EB038EE093E096
:104E6000C5CFE7DF80911003893631F081E0809370
:104E70000D0389E2809318050895CF9385E390E0B0
:104E80000E945E088093E90486E390E00E945E0839
:104E900080931705E7E0F5E0CFEFC083C283C483BA
:104EA000C683C087C287C487C68738DF10925F0277
:104EB00081E08093E804A9E1B5E0CC93EBEEF4E067
:104EC0008FEF9FEF91838083138212821582148269
:104ED0001496CC9314979783868311861086138635
:104EE00012861896CC93189795878487178616860E
:104EF000118A108A1C96CC93938B828B158A148A04
:104F0000178A168ACF910895ABE0B0E0EAE8F7E29D
:104F10000C9410307C018C010F5F1F4F45E0BE01E7
:104F20006F5F7F4FC8010E94FC07843008F0E2C029
:104F300099819130A9F4833061F46A8185E390E02E
:104F40000E9459086B8186E390E00E94590895DF22
:104F5000FCC18091E9040E94F8078091170592C076
:104F6000923009F051C0813039F081E09A8191305E
:104F700009F080E0E82E02C0EE24E39480915F0205
:104F8000811104C086E494E00E9474070FE512E0EA
:104F9000F8018081882309F4AAC0F3E00D301F07CF
:104FA00008F0A5C022E00F35120719F080E20E9438
:104FB0003507F80181810E94F807F80182810E947B
:104FC000F807E11005C0F8018081080F111DE0CF3E
:104FD0008AE30E94350783E0F82EF8018081F816F5
:104FE00090F7F3E0FF1528F4F0FE03C08CE20E9476
:104FF0003507DD24D394DF0CF801EF0DF11D80811E
:105000000E94F807FD2CE9CF933049F480E090E04E
:1050100090DE8F5592409EEA981B892F33C09031C5
:1050200039F507E015E0E12CF12CF80180818F3F84
:10503000A1F0FF2019F080E20E9435078E2D0E941A
:10504000F8078AE30E943507F80180810E94F8077B
:10505000F80181810E94F807F3940E5F1F4FE394DB
:10506000F8E0EF12E2CFF11042C084E594E03DC0D9
:10507000913159F480910505909106056DE770E036
:105080009CD7862F0E94F80732C0923181F509E142
:1050900015E0E12CF12CF80180818F3FE1F0FF2039
:1050A00019F080E20E9435078E2D0E94F8078AE3EE
:1050B0000E943507F80180810E94F807F80181817C
:1050C0000E94F807F80182810E94F807F8018381A5
:1050D0000E94F807F3940C5F1F4FE394F4E0EF1283
:1050E000DACFF11004C080E594E00E9474070E94BA
:1050F00081072BC144E0BE01695F7F4FC8010E9458
:10510000FC072F81293608F480C05A8538854985E7
:105110005C3009F052C0A9E1B5E080E090E0FD010B
:10512000E951F5405C91251322C011966C911197BD
:1051300063131DC012966C911297641318C0E75E3A
:10514000FA4F2CE023839C01220F331F820F931F01
:10515000FC01EE0FFF1FE551FB4F11821082880FFB
:10516000991FFC01E351FB4F11821082D0C05F3FB9
:10517000E9F4E75EFA4F2083318342832CE02383F6
:105180009C01220F331F820F931FFC01EE0FFF1FA4
:10519000E551FB4F11821082880F991FFC01E351EA
:1051A000FB4F118210821092E804B1C00196149650
:1051B0008430910509F0B3CFC8C0E9E1F5E080E0A3
:1051C00090E0BF0169517540A0812A1318C0A181E8
:1051D000A31315C0A281A41312C0FB01E75EFA4F0E
:1051E0005383FC01EE0FFF1FE80FF91FEE0FFF1FA7
:1051F000E351FB4F81E090E091838083A6C001964C
:10520000349684309105E9F6A0C0E9812091E90443
:10521000E217C0F1822F90E007964E2F50E08417DE
:10522000950784F19A818091170598132BC09C8172
:105230009F3231F442E06CE0C7010E942B0B85C025
:105240008D819C32B9F48093040521E030E03093E5
:105250000605209305052091A2033091A303A9011F
:1052600064E0869F400D511D11245093A303409389
:10527000A2036BC0E21BEE0FF0E0E95FFA4F9083F0
:10528000818363C080E090E054DD6C01F8010190FF
:105290000020E9F73197E01BF10BF695E79501E067
:1052A0000E0FC601800F911D8F5592408F3A9105C8
:1052B0000CF047C0F6010083560111E0812F880FE2
:1052C00081501017D0F44501FFEF8F1A9F0A41E07B
:1052D000B4019701280F311DC9010E94FC0713304A
:1052E00048F010FD07C0F5018081843619F48181F2
:1052F0008093EA041F5F5401E1CFFDE0CF16F3E095
:10530000DF0618F5F601E10FF11D10821EC022E044
:105310004CE064E0CE0107960E94BE0A8FE08A87C7
:1053200022E04CE064E0CE0107960E94BE0A82E0D3
:105330008A8722E04CE064E0CE0107960E94BE0A14
:1053400004C08AE494E00E9474072B96ECE084C6C3
:105350000F931F93CF93DF939091E80491114EC068
:1053600093E0899FE0011124FE01EE0FFF1FE5513C
:10537000FB4F94E0899FD0011124A75EBA4F12968B
:105380009C91977040E850E0491B51099AEF949F17
:105390009001959F300D11243595279535952795CA
:1053A000318320838E01000F111F01511B4FF80123
:1053B000208131812F5F3F4F31832083CC0FDD1F50
:1053C000C351DB4F488159814115510529F42430DF
:1053D0003105A1F4D4DC0FC04130510531F4CFDCEC
:1053E00082E090E09983888309C04230510531F40E
:1053F000C6DC19821882F80111821082DF91CF91E8
:105400001F910F910895A6E0B0E0E8E0FAE20EC621
:10541000809117058A831B8290910405992341F09E
:10542000933019F08DE790E010C087E791E00DC050
:10543000877090E08A519F4F4DE7489F9001499FA8
:10544000300D1124C9019595879590930605809399
:10545000050587E0E82E85E0F82E10E00CE2F70164
:1054600090819F3FC1F08091E904810F89838091F1
:105470000405882311F00C8303C09C83F70181810C
:105480008D8321E04CE065E0CE0101960E94BE0ACA
:10549000CE010196ABDC1F5FF2E0EF0EF11C18307D
:1054A000F1F680910405882341F0833019F41092BD
:1054B000040503C08250809304052696E6E0D2C519
:1054C00080910D03882351F0B4DC89E280931805A4
:1054D00080910D03815080930D0308951FCCFF929E
:1054E0000F931F93CF93DF93FC01F0800181C28162
:1054F000D38114818FE58093180510920D0380915C
:10550000E904811105C080911705882309F4A5C01D
:1055100080910E03F81204C080910F03081729F040
:10552000FDDBF0920E0300930F03809103058F3F84
:1055300009F493C0C0931003D09311031093120386
:10554000CC23F1F081111CC08091E904181761F09F
:10555000143651F08DEA8C0F823010F0CD3739F4CB
:105560008FEF8093030579C0C43509F476C08D2F81
:10557000807F803609F071C0D067D09311036CC072
:105580001BDC811105C080910305882309F465C0E7
:1055900080911403811107C0E0910305F0E0E85AFF
:1055A000FB4FE49101C0E82FE33541F4C43531F4F9
:1055B000909103059E5F9093030504C0EC1711F0D2
:1055C000ADDB4BC0882369F080915E028E5F8093D3
:1055D0005E02F2DB81110EC0809103058E5F809325
:1055E000030580910305E82FF0E0E75AFB4FC491D3
:1055F000CF3F59F48091100380931403843661F5F2
:105600008091EA048093120327C0C093100397E7A8
:10561000909311039091E904909312038E5F80930D
:105620000305109214038E30B1F48EE093E081DB19
:10563000FC01892B79F0A081B0E08DE093E08A1B1A
:105640009B0BAE0FBF1FE817F90718F42D9121939C
:10565000FACF108263DBC11104DCCDB7DEB7E5E021
:1056600002C50F931F93CF93DF93EC0100E0802FCF
:1056700090E09C01220F331F280F391FF901E054DD
:10568000FF4F1491F901EF53FF4F259134911123EE
:1056900099F0209739F480E20E943507812F0E940B
:1056A000350708C08881181305C0CE01F901099596
:1056B00081E003C00F5FDBCF80E0DF91CF911F91CE
:1056C0000F910895CF93C091500180935001809124
:1056D000AE05882309F43DC08CEA95E00E94A0093C
:1056E00020911503309116038A3011F08D3011F599
:1056F0002115310561F3F901E95EFC4F108287E164
:1057000093E0AFDF811111C08EE794E00E9474072F
:1057100087E193E00E94690786E694E00E9474079F
:1057200080E090E09EDF0E948107109216031092A5
:105730001503CDCF2038310550F6A9014F5F5F4FDB
:105740005093160340931503F901E95EFC4F8083E3
:10575000BECFC0935001CF910895E4E6F0E0808180
:105760008B7F8083299A84B1876084B9239880E5F0
:105770008CBD8DB581608DBD089520913C06309122
:105780003D062115310521F4209136013091370174
:105790008091340190913501009741F48DB79EB707
:1057A0004091380150913901841B950B2817390716
:1057B00018F4821B930B089580E090E0089582E432
:1057C0000E94350740E265E080913C0690913D06DD
:1057D0000E9485070E94810783E50E94350740E209
:1057E00065E080913601909137010E9485070E9403
:1057F000810785E40E94350740E265E0809134012D
:10580000909135010E9485070E94810786E40E94DD
:105810003507B3DF40E265E00E9485070C948107FD
:10582000A2E0B0E0E5E1FCE205C4E4E3F6E08CE3ED
:1058300096E02091F10021938E179F07D1F7809178
:10584000340690913506492F50E04A30510508F052
:1058500021C1FA01EA5AFF4FD7C3803879F0823864
:1058600009F018C1809138068093E9008091EB001F
:1058700085FB882780F91092E90006C080912F06E9
:1058800090913006911182609091E800977F9093FB
:10589000E8008093F1001092F1008091E800982FC9
:1058A0009E7F9093E8008F778093E8008091E800D6
:1058B00082FDB1C0809133068111F8CFDCC0282F62
:1058C0002D7F09F0E7C0882319F0823061F036C0DF
:1058D00080913606813009F0CEC0933009F080E027
:1058E000809330062BC080913606811127C08091AD
:1058F0003806877009F4BFC08093E9002091EB005F
:1059000020FF1CC09130A9F49091EB00906190931E
:10591000EB0021E030E0A90102C0440F551F8A9539
:10592000E2F74093EA001092EA008091EB00886071
:1059300003C08091EB0080628093EB001092E9003D
:105940008091E800877F8093E8008091E800982F9D
:105950009E7F65C081119EC0809136069091E800BF
:10596000977F9093E8009091E800292F2E7F209355
:10597000E8009F779093E8009091E80090FD05C0C3
:10598000909133069111F8CF76C08F77982F906859
:105990009093E300882309F46EC083E0809333067C
:1059A0006AC08058823008F075C0AE014F5F5F4F0B
:1059B0006091380680913606909137060E94C002A9
:1059C000BC01892B09F457C09091E800977F909310
:1059D000E80089819A812FD11EC0803809F05AC011
:1059E0008091E800877F8093E80080913106809362
:1059F000F1008091E800982F9E7F9093E8008F77C8
:105A00008093E8008091E80082FD05C08091330614
:105A10008111F8CF30C08091E800982F9B7F909340
:105A2000E8008F778093E80026C0811133C0809111
:105A300036069091370699270297ECF48091E8009A
:105A4000877F8093E80080913606809331068091AD
:105A5000E800982F9E7F9093E8008F778093E8006E
:105A600080913106882311F084E001C083E08093A7
:105A700033060E9422058091E80083FF0EC08091CA
:105A8000EB0080628093EB008091E800877F809339
:105A9000E80003C00E943A05EECF2296E2E0E6C29B
:105AA0008093E900EBEEF0E0808181608083EDEE91
:105AB000F0E010826093EC0040838091EE00881F3C
:105AC0008827881F08951092F40080E08093E900F1
:105AD0001092F0001092E8009091ED009D7F90935D
